{
  "transactions": [
    {
      "hash": "0x90734d03efaa5b0b6f91b48960c7a8aaf7ba4dd34bcf9d5920359dee6cbd4f9c",
      "transactionType": "CALL",
      "contractName": null,
      "contractAddress": "0x532ec3711c9e219910045e2bbfa0280ae0d8457e",
      "function": "setV3Pool(address,bool)",
      "arguments": [
        "0x10C6Ced34A939d54385C2983ea31C659c38A095D",
        "true"
      ],
      "transaction": {
        "from": "0x7310dd6ef89b7f829839f140c6840bc929ba2031",
        "to": "0x532ec3711c9e219910045e2bbfa0280ae0d8457e",
        "gas": "0x17ae2",
        "value": "0x0",
        "input": "0xfe57fb0300000000000000000000000010c6ced34a939d54385c2983ea31c659c38a095d0000000000000000000000000000000000000000000000000000000000000001",
        "nonce": "0x7a",
        "chainId": "0xaa36a7"
      },
      "additionalContracts": [],
      "isFixedGasLimit": false
    },
    {
      "hash": "0x0b4d598752ab6f3c943a9910329adc4515cdea414dfe0dfba6040e0775101c5e",
      "transactionType": "CALL",
      "contractName": null,
      "contractAddress": "0x532ec3711c9e219910045e2bbfa0280ae0d8457e",
      "function": "setSwapFeeConfig(uint16,uint16,uint16,uint16,address,address,bool)",
      "arguments": [
        "500",
        "500",
        "5000",
        "5000",
        "0xe5a1d534eb7f00397361F645f0F39e5D16cc1De3",
        "0xb7D1044Aa912AE4BC95099E8027dD26B1506F261",
        "true"
      ],
      "transaction": {
        "from": "0x7310dd6ef89b7f829839f140c6840bc929ba2031",
        "to": "0x532ec3711c9e219910045e2bbfa0280ae0d8457e",
        "gas": "0x18702",
        "value": "0x0",
        "input": "0xa6bd907000000000000000000000000000000000000000000000000000000000000001f400000000000000000000000000000000000000000000000000000000000001f400000000000000000000000000000000000000000000000000000000000013880000000000000000000000000000000000000000000000000000000000001388000000000000000000000000e5a1d534eb7f00397361f645f0f39e5d16cc1de3000000000000000000000000b7d1044aa912ae4bc95099e8027dd26b1506f2610000000000000000000000000000000000000000000000000000000000000001",
        "nonce": "0x7b",
        "chainId": "0xaa36a7"
      },
      "additionalContracts": [],
      "isFixedGasLimit": false
    }
  ],
  "receipts": [
    {
      "status": "0x1",
      "cumulativeGasUsed": "0xf924f5",
      "logs": [
        {
          "address": "0x532ec3711c9e219910045e2bbfa0280ae0d8457e",
          "topics": [
            "0x8034537969aa28288496e2d96deb245a468a4e474b08b72107f3ce03d4b3b115",
            "0x00000000000000000000000010c6ced34a939d54385c2983ea31c659c38a095d"
          ],
          "data": "0x0000000000000000000000000000000000000000000000000000000000000001",
          "blockHash": "0x08a52d5754bd10e39ae37bb1a6b37a2ddbd7ab693dda3c2f267a3ef5b4609222",
          "blockNumber": "0x906656",
          "blockTimestamp": "0x68f85690",
          "transactionHash": "0x90734d03efaa5b0b6f91b48960c7a8aaf7ba4dd34bcf9d5920359dee6cbd4f9c",
          "transactionIndex": "0x94",
          "logIndex": "0xaf",
          "removed": false
        }
      ],
      "logsBloom": "0x00000000000000000000000000000000000000000000000000000000000000000000000000000000400000000040000000000000000000000000000000000000000000000000000000000000000000002000000000000000000000000000000000000000000000000000000000000000000000000000000100000000000000000000000000040000000000000000000000000000000000000000000000020000000000000000000000000000000000000000000000000000000008000000000000000000000000000000000000000000000000000000000000000000000000080000000000000000000000000100000000000000000000000000000000000000",
      "type": "0x0",
      "transactionHash": "0x90734d03efaa5b0b6f91b48960c7a8aaf7ba4dd34bcf9d5920359dee6cbd4f9c",
      "transactionIndex": "0x94",
      "blockHash": "0x08a52d5754bd10e39ae37bb1a6b37a2ddbd7ab693dda3c2f267a3ef5b4609222",
      "blockNumber": "0x906656",
      "gasUsed": "0x1124f",
      "effectiveGasPrice": "0xce5ec",
      "from": "0x7310dd6ef89b7f829839f140c6840bc929ba2031",
      "to": "0x532ec3711c9e219910045e2bbfa0280ae0d8457e",
      "contractAddress": null
    },
    {
      "status": "0x1",
      "cumulativeGasUsed": "0x14b37bc",
      "logs": [
        {
          "address": "0x532ec3711c9e219910045e2bbfa0280ae0d8457e",
          "topics": [
            "0x33d7cfb3ff590af0c7db629eb7c2aba0f08ad8c556c970d0388286d9c4261ccb"
          ],
          "data": "0x00000000000000000000000000000000000000000000000000000000000001f400000000000000000000000000000000000000000000000000000000000001f40000000000000000000000000000000000000000000000000000000000000001",
          "blockHash": "0x08a52d5754bd10e39ae37bb1a6b37a2ddbd7ab693dda3c2f267a3ef5b4609222",
          "blockNumber": "0x906656",
          "blockTimestamp": "0x68f85690",
          "transactionHash": "0x0b4d598752ab6f3c943a9910329adc4515cdea414dfe0dfba6040e0775101c5e",
          "transactionIndex": "0xae",
          "logIndex": "0xd1",
          "removed": false
        }
      ],
      "logsBloom": "0x00000000000000000000000000000000000000000000000000000000000000000000000000000000400000000000000000000000000000000000000000002000000000000000000000000000000000000000000000000000000000000000000000000000000000000000000000000000000000000000000000000000000000000000040000040000000000000000000000000000000000000000000000000000000000000000000000000000000000000000000000000000000000000000000000000000000000000000000000000000000000000000000000000000000002080000000000000000000000000000000000000000000000000000000000000000",
      "type": "0x0",
      "transactionHash": "0x0b4d598752ab6f3c943a9910329adc4515cdea414dfe0dfba6040e0775101c5e",
      "transactionIndex": "0xae",
      "blockHash": "0x08a52d5754bd10e39ae37bb1a6b37a2ddbd7ab693dda3c2f267a3ef5b4609222",
      "blockNumber": "0x906656",
      "gasUsed": "0x11b16",
      "effectiveGasPrice": "0xce5ec",
      "from": "0x7310dd6ef89b7f829839f140c6840bc929ba2031",
      "to": "0x532ec3711c9e219910045e2bbfa0280ae0d8457e",
      "contractAddress": null
    }
  ],
  "libraries": [],
  "pending": [],
  "returns": {},
  "timestamp": 1761105553583,
  "chain": 11155111,
  "commit": "0260dec"
}