{
  "transactions": [
    {
      "hash": "0x8b0d81b51601842088dc0a97ee397b9845e5b058b4cb939994914bd62373f528",
      "transactionType": "CALL",
      "contractName": null,
      "contractAddress": "0x532ec3711c9e219910045e2bbfa0280ae0d8457e",
      "function": "mint(address,uint256)",
      "arguments": [
        "0x7310Dd6EF89b7f829839F140C6840bc929ba2031",
        "10000000000000000000"
      ],
      "transaction": {
        "from": "0x7310dd6ef89b7f829839f140c6840bc929ba2031",
        "to": "0x532ec3711c9e219910045e2bbfa0280ae0d8457e",
        "gas": "0x189dd",
        "value": "0x0",
        "input": "0x40c10f190000000000000000000000007310dd6ef89b7f829839f140c6840bc929ba20310000000000000000000000000000000000000000000000008ac7230489e80000",
        "nonce": "0x75",
        "chainId": "0xaa36a7"
      },
      "additionalContracts": [],
      "isFixedGasLimit": false
    },
    {
      "hash": "0xae0cb7ed2d43a5bab31ad928c5c3ab1c82893e6584019082e546255ed7f84581",
      "transactionType": "CALL",
      "contractName": null,
      "contractAddress": "0xfff9976782d46cc05630d1f6ebab18b2324d6b14",
      "function": "deposit()",
      "arguments": [],
      "transaction": {
        "from": "0x7310dd6ef89b7f829839f140c6840bc929ba2031",
        "to": "0xfff9976782d46cc05630d1f6ebab18b2324d6b14",
        "gas": "0xf2ff",
        "value": "0x38d7ea4c68000",
        "input": "0xd0e30db0",
        "nonce": "0x76",
        "chainId": "0xaa36a7"
      },
      "additionalContracts": [],
      "isFixedGasLimit": false
    },
    {
      "hash": "0x35f8b9f0aaa94ee6d70f4818c587b2e3ff6876653bf49a99301ee03cf66d39a6",
      "transactionType": "CALL",
      "contractName": null,
      "contractAddress": "0x532ec3711c9e219910045e2bbfa0280ae0d8457e",
      "function": "approve(address,uint256)",
      "arguments": [
        "0x1238536071E1c677A632429e3655c799b22cDA52",
        "115792089237316195423570985008687907853269984665640564039457584007913129639935"
      ],
      "transaction": {
        "from": "0x7310dd6ef89b7f829839f140c6840bc929ba2031",
        "to": "0x532ec3711c9e219910045e2bbfa0280ae0d8457e",
        "gas": "0x10b0d",
        "value": "0x0",
        "input": "0x095ea7b30000000000000000000000001238536071e1c677a632429e3655c799b22cda52ffffffffffffffffffffffffffffffffffffffffffffffffffffffffffffffff",
        "nonce": "0x77",
        "chainId": "0xaa36a7"
      },
      "additionalContracts": [],
      "isFixedGasLimit": false
    },
    {
      "hash": "0xff051e11e3ba8b9cc26e884102f38132da7e112da70749eb51953f252c5d3768",
      "transactionType": "CALL",
      "contractName": null,
      "contractAddress": "0xfff9976782d46cc05630d1f6ebab18b2324d6b14",
      "function": "approve(address,uint256)",
      "arguments": [
        "0x1238536071E1c677A632429e3655c799b22cDA52",
        "115792089237316195423570985008687907853269984665640564039457584007913129639935"
      ],
      "transaction": {
        "from": "0x7310dd6ef89b7f829839f140c6840bc929ba2031",
        "to": "0xfff9976782d46cc05630d1f6ebab18b2324d6b14",
        "gas": "0xfa27",
        "value": "0x0",
        "input": "0x095ea7b30000000000000000000000001238536071e1c677a632429e3655c799b22cda52ffffffffffffffffffffffffffffffffffffffffffffffffffffffffffffffff",
        "nonce": "0x78",
        "chainId": "0xaa36a7"
      },
      "additionalContracts": [],
      "isFixedGasLimit": false
    },
    {
      "hash": "0x0485da145e2187c6a19140f10e5f78334420cd638fce3245b4fd7647aa39d5ea",
      "transactionType": "CALL",
      "contractName": null,
      "contractAddress": "0x1238536071e1c677a632429e3655c799b22cda52",
      "function": "mint((address,address,uint24,int24,int24,uint256,uint256,uint256,uint256,address,uint256))",
      "arguments": [
        "(0x532Ec3711C9E219910045e2bBfA0280ae0d8457e, 0xfFf9976782d46CC05630D1f6eBAb18b2324d6B14, 10000, -10000, 10000, 10000000000000000000, 1000000000000000, 0, 0, 0x7310Dd6EF89b7f829839F140C6840bc929ba2031, 1761070476)"
      ],
      "transaction": {
        "from": "0x7310dd6ef89b7f829839f140c6840bc929ba2031",
        "to": "0x1238536071e1c677a632429e3655c799b22cda52",
        "gas": "0xd1e30",
        "value": "0x0",
        "input": "0x88316456000000000000000000000000532ec3711c9e219910045e2bbfa0280ae0d8457e000000000000000000000000fff9976782d46cc05630d1f6ebab18b2324d6b140000000000000000000000000000000000000000000000000000000000002710ffffffffffffffffffffffffffffffffffffffffffffffffffffffffffffd8f000000000000000000000000000000000000000000000000000000000000027100000000000000000000000000000000000000000000000008ac7230489e8000000000000000000000000000000000000000000000000000000038d7ea4c68000000000000000000000000000000000000000000000000000000000000000000000000000000000000000000000000000000000000000000000000000000000000000000000000000000000007310dd6ef89b7f829839f140c6840bc929ba20310000000000000000000000000000000000000000000000000000000068f7cd8c",
        "nonce": "0x79",
        "chainId": "0xaa36a7"
      },
      "additionalContracts": [],
      "isFixedGasLimit": false
    }
  ],
  "receipts": [
    {
      "status": "0x1",
      "cumulativeGasUsed": "0xf6d3b4",
      "logs": [
        {
          "address": "0x532ec3711c9e219910045e2bbfa0280ae0d8457e",
          "topics": [
            "0xddf252ad1be2c89b69c2b068fc378daa952ba7f163c4a11628f55a4df523b3ef",
            "0x0000000000000000000000000000000000000000000000000000000000000000",
            "0x0000000000000000000000007310dd6ef89b7f829839f140c6840bc929ba2031"
          ],
          "data": "0x0000000000000000000000000000000000000000000000008ac7230489e80000",
          "blockHash": "0x9f9d840b9c37e288a0c228e1eef38e45e58a5c16ed8b84a91d7b96b2d5d7d43d",
          "blockNumber": "0x905b4f",
          "blockTimestamp": "0x68f7cc78",
          "transactionHash": "0x8b0d81b51601842088dc0a97ee397b9845e5b058b4cb939994914bd62373f528",
          "transactionIndex": "0x99",
          "logIndex": "0xa6",
          "removed": false
        }
      ],
      "logsBloom": "0x00000000000000000000000000000000000000000000000000000000000000000000000000000000400000000008000000000000000000000000000000000000000000000000000000000108000000000000000000000000000000000000000000000000020000000000000000000800000000000000000000000010000000000000000000040000000000000000000000000000000000000000000000000000000000000000000000000000000000000000000000000000000000000000000000000002000000000000000000000000000000000000000000000000000020080000000000000000000000000000000800000000000000000000000000000000",
      "type": "0x0",
      "transactionHash": "0x8b0d81b51601842088dc0a97ee397b9845e5b058b4cb939994914bd62373f528",
      "transactionIndex": "0x99",
      "blockHash": "0x9f9d840b9c37e288a0c228e1eef38e45e58a5c16ed8b84a91d7b96b2d5d7d43d",
      "blockNumber": "0x905b4f",
      "gasUsed": "0x11d27",
      "effectiveGasPrice": "0xf424c",
      "from": "0x7310dd6ef89b7f829839f140c6840bc929ba2031",
      "to": "0x532ec3711c9e219910045e2bbfa0280ae0d8457e",
      "contractAddress": null
    },
    {
      "status": "0x1",
      "cumulativeGasUsed": "0xf783a2",
      "logs": [
        {
          "address": "0xfff9976782d46cc05630d1f6ebab18b2324d6b14",
          "topics": [
            "0xe1fffcc4923d04b559f4d29a8bfc6cda04eb5b0d3c460751c2402c5c5cc9109c",
            "0x0000000000000000000000007310dd6ef89b7f829839f140c6840bc929ba2031"
          ],
          "data": "0x00000000000000000000000000000000000000000000000000038d7ea4c68000",
          "blockHash": "0x9f9d840b9c37e288a0c228e1eef38e45e58a5c16ed8b84a91d7b96b2d5d7d43d",
          "blockNumber": "0x905b4f",
          "blockTimestamp": "0x68f7cc78",
          "transactionHash": "0xae0cb7ed2d43a5bab31ad928c5c3ab1c82893e6584019082e546255ed7f84581",
          "transactionIndex": "0x9a",
          "logIndex": "0xa7",
          "removed": false
        }
      ],
      "logsBloom": "0x00000000000000000000000000000000000000000000000000000000000000000000000000000000000000000008000000000000000000000000000000000000000000000000000000000100000000000000000000000000000000008000000000000000000000000000000000000000000000000000000000000000000000000040000000000000000000000000000000000001000000000000000000000000000020000000000000000000000000000000000000000000000000000000000000000000000000000002000000000000000000000000000000000000000000000000000000000000000000000000000800000000000000400000000000000000",
      "type": "0x0",
      "transactionHash": "0xae0cb7ed2d43a5bab31ad928c5c3ab1c82893e6584019082e546255ed7f84581",
      "transactionIndex": "0x9a",
      "blockHash": "0x9f9d840b9c37e288a0c228e1eef38e45e58a5c16ed8b84a91d7b96b2d5d7d43d",
      "blockNumber": "0x905b4f",
      "gasUsed": "0xafee",
      "effectiveGasPrice": "0xf424c",
      "from": "0x7310dd6ef89b7f829839f140c6840bc929ba2031",
      "to": "0xfff9976782d46cc05630d1f6ebab18b2324d6b14",
      "contractAddress": null
    },
    {
      "status": "0x1",
      "cumulativeGasUsed": "0xf83a3c",
      "logs": [
        {
          "address": "0x532ec3711c9e219910045e2bbfa0280ae0d8457e",
          "topics": [
            "0x8c5be1e5ebec7d5bd14f71427d1e84f3dd0314c0f7b2291e5b200ac8c7c3b925",
            "0x0000000000000000000000007310dd6ef89b7f829839f140c6840bc929ba2031",
            "0x0000000000000000000000001238536071e1c677a632429e3655c799b22cda52"
          ],
          "data": "0xffffffffffffffffffffffffffffffffffffffffffffffffffffffffffffffff",
          "blockHash": "0x9f9d840b9c37e288a0c228e1eef38e45e58a5c16ed8b84a91d7b96b2d5d7d43d",
          "blockNumber": "0x905b4f",
          "blockTimestamp": "0x68f7cc78",
          "transactionHash": "0x35f8b9f0aaa94ee6d70f4818c587b2e3ff6876653bf49a99301ee03cf66d39a6",
          "transactionIndex": "0x9b",
          "logIndex": "0xa8",
          "removed": false
        }
      ],
      "logsBloom": "0x00000000000000000000000000000000000000000000000000000000000000000000000000000000400000000008000000000000000000000000000000200000000000000000000000000100000000000000000000000000000000000000000000000000000000000000000000000000000000000000000000000000000000000000000000040000000000010000000000000000000000000000000000000000020000000000000000000000000000000000000000000000000000000000000000000000000000000000000000000000002000000000000000000000800000080010000000000000000000000000000800000000000000000000000000000000",
      "type": "0x0",
      "transactionHash": "0x35f8b9f0aaa94ee6d70f4818c587b2e3ff6876653bf49a99301ee03cf66d39a6",
      "transactionIndex": "0x9b",
      "blockHash": "0x9f9d840b9c37e288a0c228e1eef38e45e58a5c16ed8b84a91d7b96b2d5d7d43d",
      "blockNumber": "0x905b4f",
      "gasUsed": "0xb69a",
      "effectiveGasPrice": "0xf424c",
      "from": "0x7310dd6ef89b7f829839f140c6840bc929ba2031",
      "to": "0x532ec3711c9e219910045e2bbfa0280ae0d8457e",
      "contractAddress": null
    },
    {
      "status": "0x1",
      "cumulativeGasUsed": "0xf8ef58",
      "logs": [
        {
          "address": "0xfff9976782d46cc05630d1f6ebab18b2324d6b14",
          "topics": [
            "0x8c5be1e5ebec7d5bd14f71427d1e84f3dd0314c0f7b2291e5b200ac8c7c3b925",
            "0x0000000000000000000000007310dd6ef89b7f829839f140c6840bc929ba2031",
            "0x0000000000000000000000001238536071e1c677a632429e3655c799b22cda52"
          ],
          "data": "0xffffffffffffffffffffffffffffffffffffffffffffffffffffffffffffffff",
          "blockHash": "0x9f9d840b9c37e288a0c228e1eef38e45e58a5c16ed8b84a91d7b96b2d5d7d43d",
          "blockNumber": "0x905b4f",
          "blockTimestamp": "0x68f7cc78",
          "transactionHash": "0xff051e11e3ba8b9cc26e884102f38132da7e112da70749eb51953f252c5d3768",
          "transactionIndex": "0x9c",
          "logIndex": "0xa9",
          "removed": false
        }
      ],
      "logsBloom": "0x00000000000000000000000000000000000000000000000000000000000000000000000000000000000000000008000000000000000000000000000000200000000000000000000000000100000000000000000000000000000000000000000000000000000000000000000000000000000000000000000000000000000000000040000000000000000000010000000000000000000000000000000000000000020020000000000000000000000000000000000000000000000000000000000000000000000000000002000000000000002000000000000000000000800000000010000000000000000000000000000800000000000000000000000000000000",
      "type": "0x0",
      "transactionHash": "0xff051e11e3ba8b9cc26e884102f38132da7e112da70749eb51953f252c5d3768",
      "transactionIndex": "0x9c",
      "blockHash": "0x9f9d840b9c37e288a0c228e1eef38e45e58a5c16ed8b84a91d7b96b2d5d7d43d",
      "blockNumber": "0x905b4f",
      "gasUsed": "0xb51c",
      "effectiveGasPrice": "0xf424c",
      "from": "0x7310dd6ef89b7f829839f140c6840bc929ba2031",
      "to": "0xfff9976782d46cc05630d1f6ebab18b2324d6b14",
      "contractAddress": null
    },
    {
      "status": "0x1",
      "cumulativeGasUsed": "0x101e78b",
      "logs": [
        {
          "address": "0x532ec3711c9e219910045e2bbfa0280ae0d8457e",
          "topics": [
            "0xddf252ad1be2c89b69c2b068fc378daa952ba7f163c4a11628f55a4df523b3ef",
            "0x0000000000000000000000007310dd6ef89b7f829839f140c6840bc929ba2031",
            "0x00000000000000000000000010c6ced34a939d54385c2983ea31c659c38a095d"
          ],
          "data": "0x00000000000000000000000000000000000000000000000000038d7ea4c68000",
          "blockHash": "0x9f9d840b9c37e288a0c228e1eef38e45e58a5c16ed8b84a91d7b96b2d5d7d43d",
          "blockNumber": "0x905b4f",
          "blockTimestamp": "0x68f7cc78",
          "transactionHash": "0x0485da145e2187c6a19140f10e5f78334420cd638fce3245b4fd7647aa39d5ea",
          "transactionIndex": "0x9d",
          "logIndex": "0xaa",
          "removed": false
        },
        {
          "address": "0xfff9976782d46cc05630d1f6ebab18b2324d6b14",
          "topics": [
            "0xddf252ad1be2c89b69c2b068fc378daa952ba7f163c4a11628f55a4df523b3ef",
            "0x0000000000000000000000007310dd6ef89b7f829839f140c6840bc929ba2031",
            "0x00000000000000000000000010c6ced34a939d54385c2983ea31c659c38a095d"
          ],
          "data": "0x00000000000000000000000000000000000000000000000000038d7ea4c68000",
          "blockHash": "0x9f9d840b9c37e288a0c228e1eef38e45e58a5c16ed8b84a91d7b96b2d5d7d43d",
          "blockNumber": "0x905b4f",
          "blockTimestamp": "0x68f7cc78",
          "transactionHash": "0x0485da145e2187c6a19140f10e5f78334420cd638fce3245b4fd7647aa39d5ea",
          "transactionIndex": "0x9d",
          "logIndex": "0xab",
          "removed": false
        },
        {
          "address": "0x10c6ced34a939d54385c2983ea31c659c38a095d",
          "topics": [
            "0x7a53080ba414158be7ec69b987b5fb7d07dee101fe85488f0853ae16239d0bde",
            "0x0000000000000000000000001238536071e1c677a632429e3655c799b22cda52",
            "0xffffffffffffffffffffffffffffffffffffffffffffffffffffffffffffd8f0",
            "0x0000000000000000000000000000000000000000000000000000000000002710"
          ],
          "data": "0x0000000000000000000000001238536071e1c677a632429e3655c799b22cda520000000000000000000000000000000000000000000000000009079081b8e21300000000000000000000000000000000000000000000000000038d7ea4c6800000000000000000000000000000000000000000000000000000038d7ea4c68000",
          "blockHash": "0x9f9d840b9c37e288a0c228e1eef38e45e58a5c16ed8b84a91d7b96b2d5d7d43d",
          "blockNumber": "0x905b4f",
          "blockTimestamp": "0x68f7cc78",
          "transactionHash": "0x0485da145e2187c6a19140f10e5f78334420cd638fce3245b4fd7647aa39d5ea",
          "transactionIndex": "0x9d",
          "logIndex": "0xac",
          "removed": false
        },
        {
          "address": "0x1238536071e1c677a632429e3655c799b22cda52",
          "topics": [
            "0xddf252ad1be2c89b69c2b068fc378daa952ba7f163c4a11628f55a4df523b3ef",
            "0x0000000000000000000000000000000000000000000000000000000000000000",
            "0x0000000000000000000000007310dd6ef89b7f829839f140c6840bc929ba2031",
            "0x0000000000000000000000000000000000000000000000000000000000033c2a"
          ],
          "data": "0x",
          "blockHash": "0x9f9d840b9c37e288a0c228e1eef38e45e58a5c16ed8b84a91d7b96b2d5d7d43d",
          "blockNumber": "0x905b4f",
          "blockTimestamp": "0x68f7cc78",
          "transactionHash": "0x0485da145e2187c6a19140f10e5f78334420cd638fce3245b4fd7647aa39d5ea",
          "transactionIndex": "0x9d",
          "logIndex": "0xad",
          "removed": false
        },
        {
          "address": "0x1238536071e1c677a632429e3655c799b22cda52",
          "topics": [
            "0x3067048beee31b25b2f1681f88dac838c8bba36af25bfb2b7cf7473a5847e35f",
            "0x0000000000000000000000000000000000000000000000000000000000033c2a"
          ],
          "data": "0x0000000000000000000000000000000000000000000000000009079081b8e21300000000000000000000000000000000000000000000000000038d7ea4c6800000000000000000000000000000000000000000000000000000038d7ea4c68000",
          "blockHash": "0x9f9d840b9c37e288a0c228e1eef38e45e58a5c16ed8b84a91d7b96b2d5d7d43d",
          "blockNumber": "0x905b4f",
          "blockTimestamp": "0x68f7cc78",
          "transactionHash": "0x0485da145e2187c6a19140f10e5f78334420cd638fce3245b4fd7647aa39d5ea",
          "transactionIndex": "0x9d",
          "logIndex": "0xae",
          "removed": false
        }
      ],
      "logsBloom": "0x04000000000000000102100000000000000000000001000000000000000000000000000000000000400000000048000000000000000000000400000000000000000000000000000000000108000000002000000000000040200000000000000020000000020000000000000000000800000000000800000000002010000000000040000008040000000000010000000000000010000004000000000001000000000020000000000000000200000008000000000000000000000008002000000000000002000000000002080000020000002000000000000000000000800020080000000000000000000000000000000800000000000000000000000000000800",
      "type": "0x0",
      "transactionHash": "0x0485da145e2187c6a19140f10e5f78334420cd638fce3245b4fd7647aa39d5ea",
      "transactionIndex": "0x9d",
      "blockHash": "0x9f9d840b9c37e288a0c228e1eef38e45e58a5c16ed8b84a91d7b96b2d5d7d43d",
      "blockNumber": "0x905b4f",
      "gasUsed": "0x8f833",
      "effectiveGasPrice": "0xf424c",
      "from": "0x7310dd6ef89b7f829839f140c6840bc929ba2031",
      "to": "0x1238536071e1c677a632429e3655c799b22cda52",
      "contractAddress": null
    }
  ],
  "libraries": [],
  "pending": [],
  "returns": {},
  "timestamp": 1761070201366,
  "chain": 11155111,
  "commit": "0260dec"
}