{
  "transactions": [
    {
      "hash": "0xdfb4cee7a14c6a9481dc0bea27d15336bd324b4e016527759c39f2da590fa4e5",
      "transactionType": "CALL",
      "contractName": null,
      "contractAddress": "0x532ec3711c9e219910045e2bbfa0280ae0d8457e",
      "function": "setFeesEnabled(bool)",
      "arguments": [
        "false"
      ],
      "transaction": {
        "from": "0x7310dd6ef89b7f829839f140c6840bc929ba2031",
        "to": "0x532ec3711c9e219910045e2bbfa0280ae0d8457e",
        "gas": "0xaf87",
        "value": "0x0",
        "input": "0xa901dd920000000000000000000000000000000000000000000000000000000000000000",
        "nonce": "0x82",
        "chainId": "0xaa36a7"
      },
      "additionalContracts": [],
      "isFixedGasLimit": false
    },
    {
      "hash": "0xc067d8e32fba614717d6aa268ddd7e327c919cce0bfa7b274e797359411102ca",
      "transactionType": "CALL",
      "contractName": null,
      "contractAddress": "0x532ec3711c9e219910045e2bbfa0280ae0d8457e",
      "function": "setFeeExempt(address,bool)",
      "arguments": [
        "0x10C6Ced34A939d54385C2983ea31C659c38A095D",
        "true"
      ],
      "transaction": {
        "from": "0x7310dd6ef89b7f829839f140c6840bc929ba2031",
        "to": "0x532ec3711c9e219910045e2bbfa0280ae0d8457e",
        "gas": "0xfae5",
        "value": "0x0",
        "input": "0x8ebfc79600000000000000000000000010c6ced34a939d54385c2983ea31c659c38a095d0000000000000000000000000000000000000000000000000000000000000001",
        "nonce": "0x83",
        "chainId": "0xaa36a7"
      },
      "additionalContracts": [],
      "isFixedGasLimit": false
    },
    {
      "hash": "0x2b7831afe833ae6f6f35977ddccccbd3307ad6fffbfe2f7d43b11c85ace72f07",
      "transactionType": "CALL",
      "contractName": null,
      "contractAddress": "0x532ec3711c9e219910045e2bbfa0280ae0d8457e",
      "function": "setFeeExempt(address,bool)",
      "arguments": [
        "0x1238536071E1c677A632429e3655c799b22cDA52",
        "true"
      ],
      "transaction": {
        "from": "0x7310dd6ef89b7f829839f140c6840bc929ba2031",
        "to": "0x532ec3711c9e219910045e2bbfa0280ae0d8457e",
        "gas": "0xfae5",
        "value": "0x0",
        "input": "0x8ebfc7960000000000000000000000001238536071e1c677a632429e3655c799b22cda520000000000000000000000000000000000000000000000000000000000000001",
        "nonce": "0x84",
        "chainId": "0xaa36a7"
      },
      "additionalContracts": [],
      "isFixedGasLimit": false
    },
    {
      "hash": "0xc57594f0e00f710cbfb597d3b85d1ead630e88522b12b4f058eef0d3c0249d62",
      "transactionType": "CALL",
      "contractName": null,
      "contractAddress": "0x532ec3711c9e219910045e2bbfa0280ae0d8457e",
      "function": "setFeeExempt(address,bool)",
      "arguments": [
        "0x7310Dd6EF89b7f829839F140C6840bc929ba2031",
        "true"
      ],
      "transaction": {
        "from": "0x7310dd6ef89b7f829839f140c6840bc929ba2031",
        "to": "0x532ec3711c9e219910045e2bbfa0280ae0d8457e",
        "gas": "0xfae5",
        "value": "0x0",
        "input": "0x8ebfc7960000000000000000000000007310dd6ef89b7f829839f140c6840bc929ba20310000000000000000000000000000000000000000000000000000000000000001",
        "nonce": "0x85",
        "chainId": "0xaa36a7"
      },
      "additionalContracts": [],
      "isFixedGasLimit": false
    }
  ],
  "receipts": [
    {
      "status": "0x1",
      "cumulativeGasUsed": "0x18042c0",
      "logs": [
        {
          "address": "0x532ec3711c9e219910045e2bbfa0280ae0d8457e",
          "topics": [
            "0x33d7cfb3ff590af0c7db629eb7c2aba0f08ad8c556c970d0388286d9c4261ccb"
          ],
          "data": "0x00000000000000000000000000000000000000000000000000000000000001f400000000000000000000000000000000000000000000000000000000000001f40000000000000000000000000000000000000000000000000000000000000000",
          "blockHash": "0x12ae01d36d86f85abaf8df6bfed7a1d65f0b50d8b0496510cbbd7ab7ac53054c",
          "blockNumber": "0x906c2f",
          "blockTimestamp": "0x68f8a0dc",
          "transactionHash": "0xdfb4cee7a14c6a9481dc0bea27d15336bd324b4e016527759c39f2da590fa4e5",
          "transactionIndex": "0x42",
          "logIndex": "0xba",
          "removed": false
        }
      ],
      "logsBloom": "0x00000000000000000000000000000000000000000000000000000000000000000000000000000000400000000000000000000000000000000000000000002000000000000000000000000000000000000000000000000000000000000000000000000000000000000000000000000000000000000000000000000000000000000000040000040000000000000000000000000000000000000000000000000000000000000000000000000000000000000000000000000000000000000000000000000000000000000000000000000000000000000000000000000000000002080000000000000000000000000000000000000000000000000000000000000000",
      "type": "0x0",
      "transactionHash": "0xdfb4cee7a14c6a9481dc0bea27d15336bd324b4e016527759c39f2da590fa4e5",
      "transactionIndex": "0x42",
      "blockHash": "0x12ae01d36d86f85abaf8df6bfed7a1d65f0b50d8b0496510cbbd7ab7ac53054c",
      "blockNumber": "0x906c2f",
      "gasUsed": "0x7f15",
      "effectiveGasPrice": "0xf424a",
      "from": "0x7310dd6ef89b7f829839f140c6840bc929ba2031",
      "to": "0x532ec3711c9e219910045e2bbfa0280ae0d8457e",
      "contractAddress": null
    },
    {
      "status": "0x1",
      "cumulativeGasUsed": "0x19109da",
      "logs": [],
      "logsBloom": "0x00000000000000000000000000000000000000000000000000000000000000000000000000000000000000000000000000000000000000000000000000000000000000000000000000000000000000000000000000000000000000000000000000000000000000000000000000000000000000000000000000000000000000000000000000000000000000000000000000000000000000000000000000000000000000000000000000000000000000000000000000000000000000000000000000000000000000000000000000000000000000000000000000000000000000000000000000000000000000000000000000000000000000000000000000000000",
      "type": "0x0",
      "transactionHash": "0xc067d8e32fba614717d6aa268ddd7e327c919cce0bfa7b274e797359411102ca",
      "transactionIndex": "0x47",
      "blockHash": "0x12ae01d36d86f85abaf8df6bfed7a1d65f0b50d8b0496510cbbd7ab7ac53054c",
      "blockNumber": "0x906c2f",
      "gasUsed": "0xb5a5",
      "effectiveGasPrice": "0xf424a",
      "from": "0x7310dd6ef89b7f829839f140c6840bc929ba2031",
      "to": "0x532ec3711c9e219910045e2bbfa0280ae0d8457e",
      "contractAddress": null
    },
    {
      "status": "0x1",
      "cumulativeGasUsed": "0x1bd4367",
      "logs": [],
      "logsBloom": "0x00000000000000000000000000000000000000000000000000000000000000000000000000000000000000000000000000000000000000000000000000000000000000000000000000000000000000000000000000000000000000000000000000000000000000000000000000000000000000000000000000000000000000000000000000000000000000000000000000000000000000000000000000000000000000000000000000000000000000000000000000000000000000000000000000000000000000000000000000000000000000000000000000000000000000000000000000000000000000000000000000000000000000000000000000000000",
      "type": "0x0",
      "transactionHash": "0x2b7831afe833ae6f6f35977ddccccbd3307ad6fffbfe2f7d43b11c85ace72f07",
      "transactionIndex": "0x70",
      "blockHash": "0x12ae01d36d86f85abaf8df6bfed7a1d65f0b50d8b0496510cbbd7ab7ac53054c",
      "blockNumber": "0x906c2f",
      "gasUsed": "0xb5a5",
      "effectiveGasPrice": "0xf424a",
      "from": "0x7310dd6ef89b7f829839f140c6840bc929ba2031",
      "to": "0x532ec3711c9e219910045e2bbfa0280ae0d8457e",
      "contractAddress": null
    },
    {
      "status": "0x1",
      "cumulativeGasUsed": "0x1bdf90c",
      "logs": [],
      "logsBloom": "0x00000000000000000000000000000000000000000000000000000000000000000000000000000000000000000000000000000000000000000000000000000000000000000000000000000000000000000000000000000000000000000000000000000000000000000000000000000000000000000000000000000000000000000000000000000000000000000000000000000000000000000000000000000000000000000000000000000000000000000000000000000000000000000000000000000000000000000000000000000000000000000000000000000000000000000000000000000000000000000000000000000000000000000000000000000000",
      "type": "0x0",
      "transactionHash": "0xc57594f0e00f710cbfb597d3b85d1ead630e88522b12b4f058eef0d3c0249d62",
      "transactionIndex": "0x71",
      "blockHash": "0x12ae01d36d86f85abaf8df6bfed7a1d65f0b50d8b0496510cbbd7ab7ac53054c",
      "blockNumber": "0x906c2f",
      "gasUsed": "0xb5a5",
      "effectiveGasPrice": "0xf424a",
      "from": "0x7310dd6ef89b7f829839f140c6840bc929ba2031",
      "to": "0x532ec3711c9e219910045e2bbfa0280ae0d8457e",
      "contractAddress": null
    }
  ],
  "libraries": [],
  "pending": [],
  "returns": {},
  "timestamp": 1761124573393,
  "chain": 11155111,
  "commit": "0260dec"
}