{
  "transactions": [
    {
      "hash": "0x57bd19bfd8a8a4c2bd556c5b6a7c6d5b443fad5add2d1b6b8f86ceff1693914e",
      "transactionType": "CALL",
      "contractName": null,
      "contractAddress": "0xf130a2d24261b060b21b88464888a1ed6876986f",
      "function": "setPeer(uint32,bytes32)",
      "arguments": [
        "30184",
        "0x000000000000000000000000d89d7db05d37b7c6aac73964656233bebf05392c"
      ],
      "transaction": {
        "from": "0x7310dd6ef89b7f829839f140c6840bc929ba2031",
        "to": "0xf130a2d24261b060b21b88464888a1ed6876986f",
        "gas": "0xfaad",
        "value": "0x0",
        "input": "0x3400288b00000000000000000000000000000000000000000000000000000000000075e8000000000000000000000000d89d7db05d37b7c6aac73964656233bebf05392c",
        "nonce": "0x102",
        "chainId": "0xa4b1"
      },
      "additionalContracts": [],
      "isFixedGasLimit": false
    },
    {
      "hash": "0x7a1f9cb3884660422851f5ee997d06ba07b9aee5ede1380284b5f8b1f6e0bfe9",
      "transactionType": "CALL",
      "contractName": null,
      "contractAddress": "0x684f7a30376d201d811fed7747caa600c2849517",
      "function": "setPeer(uint32,bytes32)",
      "arguments": [
        "30184",
        "0x0000000000000000000000001581b58f36e41724cc440fa7d997c0409a98b441"
      ],
      "transaction": {
        "from": "0x7310dd6ef89b7f829839f140c6840bc929ba2031",
        "to": "0x684f7a30376d201d811fed7747caa600c2849517",
        "gas": "0xfa3a",
        "value": "0x0",
        "input": "0x3400288b00000000000000000000000000000000000000000000000000000000000075e80000000000000000000000001581b58f36e41724cc440fa7d997c0409a98b441",
        "nonce": "0x103",
        "chainId": "0xa4b1"
      },
      "additionalContracts": [],
      "isFixedGasLimit": false
    },
    {
      "hash": "0x42da19bb593175afcbda3a634d87251b0a1c42e812145d50ca0e5223ca680a27",
      "transactionType": "CALL",
      "contractName": null,
      "contractAddress": "0x5d2ddb479fdd7813b0383a53323135d7f9139031",
      "function": "setPeer(uint32,bytes32)",
      "arguments": [
        "30184",
        "0x000000000000000000000000dd3422ed60631846d852ec9632a9508533fd796a"
      ],
      "transaction": {
        "from": "0x7310dd6ef89b7f829839f140c6840bc929ba2031",
        "to": "0x5d2ddb479fdd7813b0383a53323135d7f9139031",
        "gas": "0xfa46",
        "value": "0x0",
        "input": "0x3400288b00000000000000000000000000000000000000000000000000000000000075e8000000000000000000000000dd3422ed60631846d852ec9632a9508533fd796a",
        "nonce": "0x104",
        "chainId": "0xa4b1"
      },
      "additionalContracts": [],
      "isFixedGasLimit": false
    }
  ],
  "receipts": [
    {
      "status": "0x1",
      "cumulativeGasUsed": "0xaf129",
      "logs": [
        {
          "address": "0xf130a2d24261b060b21b88464888a1ed6876986f",
          "topics": [
            "0x238399d427b947898edb290f5ff0f9109849b1c3ba196a42e35f00c50a54b98b"
          ],
          "data": "0x00000000000000000000000000000000000000000000000000000000000075e8000000000000000000000000d89d7db05d37b7c6aac73964656233bebf05392c",
          "blockHash": "0x9b860fe73130a3e11203ca081ce471a4c14640212299b5dd27c434bb335dd32e",
          "blockNumber": "0x1761d640",
          "transactionHash": "0x57bd19bfd8a8a4c2bd556c5b6a7c6d5b443fad5add2d1b6b8f86ceff1693914e",
          "transactionIndex": "0xa",
          "logIndex": "0xa",
          "removed": false
        }
      ],
      "logsBloom": "0x00000000000000000000000000000000000000000000000000000000000000000000000000000000000000000000000000000000000000000800000000002000000000000000000000000000000001000000000000000000000000000000000000000000000000000000000000000000000000000000000000000000000000000000000000000000000000000000000000000000000000000000000000000000000000000000000000000000000000000000000000000000000002000000000000000000000000000000000000000000000000000000000000040000000000000000000000000000000000000000000000008000000000000000000000000000",
      "type": "0x2",
      "transactionHash": "0x57bd19bfd8a8a4c2bd556c5b6a7c6d5b443fad5add2d1b6b8f86ceff1693914e",
      "transactionIndex": "0xa",
      "blockHash": "0x9b860fe73130a3e11203ca081ce471a4c14640212299b5dd27c434bb335dd32e",
      "blockNumber": "0x1761d640",
      "gasUsed": "0xbdfd",
      "effectiveGasPrice": "0x105f298",
      "from": "0x7310dd6ef89b7f829839f140c6840bc929ba2031",
      "to": "0xf130a2d24261b060b21b88464888a1ed6876986f",
      "contractAddress": null,
      "gasUsedForL1": "0x32f",
      "l1BlockNumber": "0x168a31f",
      "timeboosted": false
    },
    {
      "status": "0x1",
      "cumulativeGasUsed": "0xe5962",
      "logs": [
        {
          "address": "0x684f7a30376d201d811fed7747caa600c2849517",
          "topics": [
            "0x238399d427b947898edb290f5ff0f9109849b1c3ba196a42e35f00c50a54b98b"
          ],
          "data": "0x00000000000000000000000000000000000000000000000000000000000075e80000000000000000000000001581b58f36e41724cc440fa7d997c0409a98b441",
          "blockHash": "0x050733bba4c975529099af52d480937bf3386f1f718f218bd694f0c2cbad228f",
          "blockNumber": "0x1761d64a",
          "transactionHash": "0x7a1f9cb3884660422851f5ee997d06ba07b9aee5ede1380284b5f8b1f6e0bfe9",
          "transactionIndex": "0x6",
          "logIndex": "0x19",
          "removed": false
        }
      ],
      "logsBloom": "0x00000000000000000000000000000000000000000000000000000000000000000000000000000002000000000000000000000000000000000800000000000000000000000000000000000000000000000000000000000000000000000000000000000000000000000000000000000000000000000000000000000000000001000000000000000000000000000000000000000000000000000000000000000000000000000000000000000000000000000000000000000000000002000000000000000000000000000000000000000000000000000000000000040000000000000000000000000000000000000020000000000000000000000000000000000000",
      "type": "0x2",
      "transactionHash": "0x7a1f9cb3884660422851f5ee997d06ba07b9aee5ede1380284b5f8b1f6e0bfe9",
      "transactionIndex": "0x6",
      "blockHash": "0x050733bba4c975529099af52d480937bf3386f1f718f218bd694f0c2cbad228f",
      "blockNumber": "0x1761d64a",
      "gasUsed": "0xbdb3",
      "effectiveGasPrice": "0x101cc18",
      "from": "0x7310dd6ef89b7f829839f140c6840bc929ba2031",
      "to": "0x684f7a30376d201d811fed7747caa600c2849517",
      "contractAddress": null,
      "gasUsedForL1": "0x33d",
      "l1BlockNumber": "0x168a31f",
      "timeboosted": false
    },
    {
      "status": "0x1",
      "cumulativeGasUsed": "0x418afb",
      "logs": [
        {
          "address": "0x5d2ddb479fdd7813b0383a53323135d7f9139031",
          "topics": [
            "0x238399d427b947898edb290f5ff0f9109849b1c3ba196a42e35f00c50a54b98b"
          ],
          "data": "0x00000000000000000000000000000000000000000000000000000000000075e8000000000000000000000000dd3422ed60631846d852ec9632a9508533fd796a",
          "blockHash": "0x08367cb4f725d0d8a0aa3c424d41c8da7e7ea1c1f25c2d69ea3cae07916a3405",
          "blockNumber": "0x1761d654",
          "transactionHash": "0x42da19bb593175afcbda3a634d87251b0a1c42e812145d50ca0e5223ca680a27",
          "transactionIndex": "0x6",
          "logIndex": "0x35",
          "removed": false
        }
      ],
      "logsBloom": "0x00000000000000000000000000000000000000000000000000000004000000000000000000000000000000000000000000000000000000000800000000000000000000000000000000000000000000000000000000000000000000000000000000000000000002000000000000004000000000000000000000000000000000000000000000000000000000000000000000000000000000000000000000000000000000000000000000000000000000000000000000000000000002000000000000000000000000000000000000000000000000000000000000040000000000000000000000000000000000000000000000000000000000000000000000000000",
      "type": "0x2",
      "transactionHash": "0x42da19bb593175afcbda3a634d87251b0a1c42e812145d50ca0e5223ca680a27",
      "transactionIndex": "0x6",
      "blockHash": "0x08367cb4f725d0d8a0aa3c424d41c8da7e7ea1c1f25c2d69ea3cae07916a3405",
      "blockNumber": "0x1761d654",
      "gasUsed": "0xbdaa",
      "effectiveGasPrice": "0x1048f20",
      "from": "0x7310dd6ef89b7f829839f140c6840bc929ba2031",
      "to": "0x5d2ddb479fdd7813b0383a53323135d7f9139031",
      "contractAddress": null,
      "gasUsedForL1": "0x334",
      "l1BlockNumber": "0x168a320",
      "timeboosted": false
    }
  ],
  "libraries": [],
  "pending": [],
  "returns": {},
  "timestamp": 1761156166035,
  "chain": 42161,
  "commit": "0260dec"
}