{
  "transactions": [
    {
      "hash": "0x872ad88bc5532b4f1c8c840a77ca90dc08b1c4cd5d09bc7d343e0bf16291cd3a",
      "transactionType": "CALL",
      "contractName": null,
      "contractAddress": "0x532ec3711c9e219910045e2bbfa0280ae0d8457e",
      "function": "setFeeExempt(address,bool)",
      "arguments": [
        "0x7310Dd6EF89b7f829839F140C6840bc929ba2031",
        "false"
      ],
      "transaction": {
        "from": "0x7310dd6ef89b7f829839f140c6840bc929ba2031",
        "to": "0x532ec3711c9e219910045e2bbfa0280ae0d8457e",
        "gas": "0x84aa",
        "value": "0x0",
        "input": "0x8ebfc7960000000000000000000000007310dd6ef89b7f829839f140c6840bc929ba20310000000000000000000000000000000000000000000000000000000000000000",
        "nonce": "0x80",
        "chainId": "0xaa36a7"
      },
      "additionalContracts": [],
      "isFixedGasLimit": false
    }
  ],
  "receipts": [
    {
      "status": "0x1",
      "cumulativeGasUsed": "0x13a4ddb",
      "logs": [],
      "logsBloom": "0x00000000000000000000000000000000000000000000000000000000000000000000000000000000000000000000000000000000000000000000000000000000000000000000000000000000000000000000000000000000000000000000000000000000000000000000000000000000000000000000000000000000000000000000000000000000000000000000000000000000000000000000000000000000000000000000000000000000000000000000000000000000000000000000000000000000000000000000000000000000000000000000000000000000000000000000000000000000000000000000000000000000000000000000000000000000",
      "type": "0x0",
      "transactionHash": "0x872ad88bc5532b4f1c8c840a77ca90dc08b1c4cd5d09bc7d343e0bf16291cd3a",
      "transactionIndex": "0x83",
      "blockHash": "0xd26f33ee44f496e26e94d999be74109efe9cf831bd134072cded5c2cffdf751c",
      "blockNumber": "0x906b90",
      "gasUsed": "0x600d",
      "effectiveGasPrice": "0xf424b",
      "from": "0x7310dd6ef89b7f829839f140c6840bc929ba2031",
      "to": "0x532ec3711c9e219910045e2bbfa0280ae0d8457e",
      "contractAddress": null
    }
  ],
  "libraries": [],
  "pending": [],
  "returns": {},
  "timestamp": 1761122520813,
  "chain": 11155111,
  "commit": "0260dec"
}