{
  "transactions": [
    {
      "hash": "0x92c94925ac9c5b1bafc255c17a4825d5cf5358a7d2bfe1eef258ef4e2120f7ef",
      "transactionType": "CALL",
      "contractName": null,
      "contractAddress": "0xf83922bcd5a80c07ccb61dba5e7f7a02cc05a1fd",
      "function": "approve(address,uint256)",
      "arguments": [
        "0xE592427A0AEce92De3Edee1F18E0157C05861564",
        "10000000000000000"
      ],
      "transaction": {
        "from": "0x7310dd6ef89b7f829839f140c6840bc929ba2031",
        "to": "0xf83922bcd5a80c07ccb61dba5e7f7a02cc05a1fd",
        "gas": "0xee47",
        "value": "0x0",
        "input": "0x095ea7b3000000000000000000000000e592427a0aece92de3edee1f18e0157c05861564000000000000000000000000000000000000000000000000002386f26fc10000",
        "nonce": "0xf7",
        "chainId": "0xa4b1"
      },
      "additionalContracts": [],
      "isFixedGasLimit": false
    },
    {
      "hash": "0x34c45c22de807d68aeacc8acc40cce950c9724b8233ee7cdd43f804f24d0442d",
      "transactionType": "CALL",
      "contractName": null,
      "contractAddress": "0xe592427a0aece92de3edee1f18e0157c05861564",
      "function": "exactInputSingle((address,address,uint24,address,uint256,uint256,uint256,uint160))",
      "arguments": [
        "(0xf83922BcD5a80C07ccb61dbA5E7f7A02cC05a1fD, 0x82aF49447D8a07e3bd95BD0d56f35241523fBab1, 10000, 0x7310Dd6EF89b7f829839F140C6840bc929ba2031, 1761135749, 10000000000000000, 0, 0)"
      ],
      "transaction": {
        "from": "0x7310dd6ef89b7f829839f140c6840bc929ba2031",
        "to": "0xe592427a0aece92de3edee1f18e0157c05861564",
        "gas": "0x2ea2a",
        "value": "0x0",
        "input": "0x414bf389000000000000000000000000f83922bcd5a80c07ccb61dba5e7f7a02cc05a1fd00000000000000000000000082af49447d8a07e3bd95bd0d56f35241523fbab100000000000000000000000000000000000000000000000000000000000027100000000000000000000000007310dd6ef89b7f829839f140c6840bc929ba20310000000000000000000000000000000000000000000000000000000068f8cc85000000000000000000000000000000000000000000000000002386f26fc1000000000000000000000000000000000000000000000000000000000000000000000000000000000000000000000000000000000000000000000000000000000000",
        "nonce": "0xf8",
        "chainId": "0xa4b1"
      },
      "additionalContracts": [],
      "isFixedGasLimit": false
    }
  ],
  "receipts": [
    {
      "status": "0x1",
      "cumulativeGasUsed": "0x14979d",
      "logs": [
        {
          "address": "0xf83922bcd5a80c07ccb61dba5e7f7a02cc05a1fd",
          "topics": [
            "0x8c5be1e5ebec7d5bd14f71427d1e84f3dd0314c0f7b2291e5b200ac8c7c3b925",
            "0x0000000000000000000000007310dd6ef89b7f829839f140c6840bc929ba2031",
            "0x000000000000000000000000e592427a0aece92de3edee1f18e0157c05861564"
          ],
          "data": "0x000000000000000000000000000000000000000000000000002386f26fc10000",
          "blockHash": "0x2ec1f0ebda8799fd11b44ec56733b8417e313be20006441fc746db27bd026dd1",
          "blockNumber": "0x1760933d",
          "transactionHash": "0x92c94925ac9c5b1bafc255c17a4825d5cf5358a7d2bfe1eef258ef4e2120f7ef",
          "transactionIndex": "0xa",
          "logIndex": "0x22",
          "removed": false
        }
      ],
      "logsBloom": "0x00000002000000000000000000000000000000000000000000000000000000000000000000000000000000000008000000000000000000000000000000200000000000000000000000000100000000000000000000000000000000000000000000000000000008000000100000000000000000000000000000000000000000000000000000000000000000000000100000000000000000000000000000000040020000000000000000000000800000000000000000000000000000000000000000000000000000000000000000000000000000000000000000000000000000000010000000000000000000000000000800000000000000000000000000000000",
      "type": "0x2",
      "transactionHash": "0x92c94925ac9c5b1bafc255c17a4825d5cf5358a7d2bfe1eef258ef4e2120f7ef",
      "transactionIndex": "0xa",
      "blockHash": "0x2ec1f0ebda8799fd11b44ec56733b8417e313be20006441fc746db27bd026dd1",
      "blockNumber": "0x1760933d",
      "gasUsed": "0xb53a",
      "effectiveGasPrice": "0x10fd9c0",
      "from": "0x7310dd6ef89b7f829839f140c6840bc929ba2031",
      "to": "0xf83922bcd5a80c07ccb61dba5e7f7a02cc05a1fd",
      "contractAddress": null,
      "gasUsedForL1": "0x14a",
      "l1BlockNumber": "0x1689c7a",
      "timeboosted": false
    },
    {
      "status": "0x1",
      "cumulativeGasUsed": "0x21e63",
      "logs": [
        {
          "address": "0x82af49447d8a07e3bd95bd0d56f35241523fbab1",
          "topics": [
            "0xddf252ad1be2c89b69c2b068fc378daa952ba7f163c4a11628f55a4df523b3ef",
            "0x000000000000000000000000f6ff96022b5e025aea8d7d5b0484838234c17f10",
            "0x0000000000000000000000007310dd6ef89b7f829839f140c6840bc929ba2031"
          ],
          "data": "0x00000000000000000000000000000000000000000000000000002da9f0ee1094",
          "blockHash": "0xf28e7d9b04d996bad38276664f9018a5d839e6a4a6881be8830c98a5e63332dc",
          "blockNumber": "0x17609344",
          "transactionHash": "0x34c45c22de807d68aeacc8acc40cce950c9724b8233ee7cdd43f804f24d0442d",
          "transactionIndex": "0x1",
          "logIndex": "0x0",
          "removed": false
        },
        {
          "address": "0xf83922bcd5a80c07ccb61dba5e7f7a02cc05a1fd",
          "topics": [
            "0xddf252ad1be2c89b69c2b068fc378daa952ba7f163c4a11628f55a4df523b3ef",
            "0x0000000000000000000000007310dd6ef89b7f829839f140c6840bc929ba2031",
            "0x000000000000000000000000f6ff96022b5e025aea8d7d5b0484838234c17f10"
          ],
          "data": "0x000000000000000000000000000000000000000000000000002386f26fc10000",
          "blockHash": "0xf28e7d9b04d996bad38276664f9018a5d839e6a4a6881be8830c98a5e63332dc",
          "blockNumber": "0x17609344",
          "transactionHash": "0x34c45c22de807d68aeacc8acc40cce950c9724b8233ee7cdd43f804f24d0442d",
          "transactionIndex": "0x1",
          "logIndex": "0x1",
          "removed": false
        },
        {
          "address": "0xf6ff96022b5e025aea8d7d5b0484838234c17f10",
          "topics": [
            "0xc42079f94a6350d7e6235f29174924f928cc2ac818eb64fed8004e115fbcca67",
            "0x000000000000000000000000e592427a0aece92de3edee1f18e0157c05861564",
            "0x0000000000000000000000007310dd6ef89b7f829839f140c6840bc929ba2031"
          ],
          "data": "0xffffffffffffffffffffffffffffffffffffffffffffffffffffd2560f11ef6c000000000000000000000000000000000000000000000000002386f26fc10000000000000000000000000000000000000000000e0cfce3f7958b2580165ffa3300000000000000000000000000000000000000000000000007f141aa0b2e538b000000000000000000000000000000000000000000000000000000000000ce78",
          "blockHash": "0xf28e7d9b04d996bad38276664f9018a5d839e6a4a6881be8830c98a5e63332dc",
          "blockNumber": "0x17609344",
          "transactionHash": "0x34c45c22de807d68aeacc8acc40cce950c9724b8233ee7cdd43f804f24d0442d",
          "transactionIndex": "0x1",
          "logIndex": "0x2",
          "removed": false
        }
      ],
      "logsBloom": "0x00000002000000000004000000000000000000000001000000000000000000000000000000000000000000000008000000004000000020020000000000000000000000010000000800000108000000000000000000000200000000000000000000000000000008000000100400000000000000000000000000000010000800000000000000000000000000000000100000000000000000000000000000000040000000000000002000000000800000000000000000000000000000000000000000000002000000000000000000000000000000000000000000000000000000000000000000000000000000000000000800000000000000000000000000000000",
      "type": "0x2",
      "transactionHash": "0x34c45c22de807d68aeacc8acc40cce950c9724b8233ee7cdd43f804f24d0442d",
      "transactionIndex": "0x1",
      "blockHash": "0xf28e7d9b04d996bad38276664f9018a5d839e6a4a6881be8830c98a5e63332dc",
      "blockNumber": "0x17609344",
      "gasUsed": "0x21e63",
      "effectiveGasPrice": "0x113ecb8",
      "from": "0x7310dd6ef89b7f829839f140c6840bc929ba2031",
      "to": "0xe592427a0aece92de3edee1f18e0157c05861564",
      "contractAddress": null,
      "gasUsedForL1": "0x22d",
      "l1BlockNumber": "0x1689c7a",
      "timeboosted": false
    }
  ],
  "libraries": [],
  "pending": [],
  "returns": {},
  "timestamp": 1761135531038,
  "chain": 42161,
  "commit": "0260dec"
}