{
  "transactions": [
    {
      "hash": "0xaca41d586e85e7c386769753be0e3c6cf08517b165722e9c5a669a2867a89806",
      "transactionType": "CALL",
      "contractName": null,
      "contractAddress": "0x532ec3711c9e219910045e2bbfa0280ae0d8457e",
      "function": "setFeeExempt(address,bool)",
      "arguments": [
        "0x10C6Ced34A939d54385C2983ea31C659c38A095D",
        "false"
      ],
      "transaction": {
        "from": "0x7310dd6ef89b7f829839f140c6840bc929ba2031",
        "to": "0x532ec3711c9e219910045e2bbfa0280ae0d8457e",
        "gas": "0x84aa",
        "value": "0x0",
        "input": "0x8ebfc79600000000000000000000000010c6ced34a939d54385c2983ea31c659c38a095d0000000000000000000000000000000000000000000000000000000000000000",
        "nonce": "0x96",
        "chainId": "0xaa36a7"
      },
      "additionalContracts": [],
      "isFixedGasLimit": false
    },
    {
      "hash": "0x4c541710dac9f2d3b4d796b974d1b92983e5a66fee2d2b855c0e79e4aa043801",
      "transactionType": "CALL",
      "contractName": null,
      "contractAddress": "0x532ec3711c9e219910045e2bbfa0280ae0d8457e",
      "function": "transfer(address,uint256)",
      "arguments": [
        "0x10C6Ced34A939d54385C2983ea31C659c38A095D",
        "500000000000000000"
      ],
      "transaction": {
        "from": "0x7310dd6ef89b7f829839f140c6840bc929ba2031",
        "to": "0x532ec3711c9e219910045e2bbfa0280ae0d8457e",
        "gas": "0xd2ab",
        "value": "0x0",
        "input": "0xa9059cbb00000000000000000000000010c6ced34a939d54385c2983ea31c659c38a095d00000000000000000000000000000000000000000000000006f05b59d3b20000",
        "nonce": "0x97",
        "chainId": "0xaa36a7"
      },
      "additionalContracts": [],
      "isFixedGasLimit": false
    },
    {
      "hash": "0x763ddaeb99fe59c3218f65cf5669f3cc2ec956b075c79bb99028d53c97292231",
      "transactionType": "CALL",
      "contractName": null,
      "contractAddress": "0x532ec3711c9e219910045e2bbfa0280ae0d8457e",
      "function": "setFeeExempt(address,bool)",
      "arguments": [
        "0x10C6Ced34A939d54385C2983ea31C659c38A095D",
        "true"
      ],
      "transaction": {
        "from": "0x7310dd6ef89b7f829839f140c6840bc929ba2031",
        "to": "0x532ec3711c9e219910045e2bbfa0280ae0d8457e",
        "gas": "0xfae5",
        "value": "0x0",
        "input": "0x8ebfc79600000000000000000000000010c6ced34a939d54385c2983ea31c659c38a095d0000000000000000000000000000000000000000000000000000000000000001",
        "nonce": "0x98",
        "chainId": "0xaa36a7"
      },
      "additionalContracts": [],
      "isFixedGasLimit": false
    }
  ],
  "receipts": [
    {
      "status": "0x1",
      "cumulativeGasUsed": "0x830d22",
      "logs": [],
      "logsBloom": "0x00000000000000000000000000000000000000000000000000000000000000000000000000000000000000000000000000000000000000000000000000000000000000000000000000000000000000000000000000000000000000000000000000000000000000000000000000000000000000000000000000000000000000000000000000000000000000000000000000000000000000000000000000000000000000000000000000000000000000000000000000000000000000000000000000000000000000000000000000000000000000000000000000000000000000000000000000000000000000000000000000000000000000000000000000000000",
      "type": "0x0",
      "transactionHash": "0xaca41d586e85e7c386769753be0e3c6cf08517b165722e9c5a669a2867a89806",
      "transactionIndex": "0x3d",
      "blockHash": "0x72eab8493a4e7cfa30aeafc80fda9c300868e55f312a5e3203ddf42d7a4f4dc3",
      "blockNumber": "0x906d49",
      "gasUsed": "0x600d",
      "effectiveGasPrice": "0xf424c",
      "from": "0x7310dd6ef89b7f829839f140c6840bc929ba2031",
      "to": "0x532ec3711c9e219910045e2bbfa0280ae0d8457e",
      "contractAddress": null
    },
    {
      "status": "0x1",
      "cumulativeGasUsed": "0x83a5a8",
      "logs": [
        {
          "address": "0x532ec3711c9e219910045e2bbfa0280ae0d8457e",
          "topics": [
            "0xddf252ad1be2c89b69c2b068fc378daa952ba7f163c4a11628f55a4df523b3ef",
            "0x0000000000000000000000007310dd6ef89b7f829839f140c6840bc929ba2031",
            "0x00000000000000000000000010c6ced34a939d54385c2983ea31c659c38a095d"
          ],
          "data": "0x00000000000000000000000000000000000000000000000006f05b59d3b20000",
          "blockHash": "0x72eab8493a4e7cfa30aeafc80fda9c300868e55f312a5e3203ddf42d7a4f4dc3",
          "blockNumber": "0x906d49",
          "blockTimestamp": "0x68f8aee0",
          "transactionHash": "0x4c541710dac9f2d3b4d796b974d1b92983e5a66fee2d2b855c0e79e4aa043801",
          "transactionIndex": "0x3e",
          "logIndex": "0x5f",
          "removed": false
        }
      ],
      "logsBloom": "0x00000000000000000000000000000000000000000000000000000000000000000000000000000000400000000048000000000000000000000000000000000000000000000000000000000108000000002000000000000000000000000000000000000000000000000000000000000000000000000000000000000010000000000000000000040000000000000000000000000000000000000000000000000000000000000000000000000000000000000000000000000000000008000000000000000002000000000000000000000000000000000000000000000000000000080000000000000000000000000000000800000000000000000000000000000000",
      "type": "0x0",
      "transactionHash": "0x4c541710dac9f2d3b4d796b974d1b92983e5a66fee2d2b855c0e79e4aa043801",
      "transactionIndex": "0x3e",
      "blockHash": "0x72eab8493a4e7cfa30aeafc80fda9c300868e55f312a5e3203ddf42d7a4f4dc3",
      "blockNumber": "0x906d49",
      "gasUsed": "0x9886",
      "effectiveGasPrice": "0xf424c",
      "from": "0x7310dd6ef89b7f829839f140c6840bc929ba2031",
      "to": "0x532ec3711c9e219910045e2bbfa0280ae0d8457e",
      "contractAddress": null
    },
    {
      "status": "0x1",
      "cumulativeGasUsed": "0x845b4d",
      "logs": [],
      "logsBloom": "0x00000000000000000000000000000000000000000000000000000000000000000000000000000000000000000000000000000000000000000000000000000000000000000000000000000000000000000000000000000000000000000000000000000000000000000000000000000000000000000000000000000000000000000000000000000000000000000000000000000000000000000000000000000000000000000000000000000000000000000000000000000000000000000000000000000000000000000000000000000000000000000000000000000000000000000000000000000000000000000000000000000000000000000000000000000000",
      "type": "0x0",
      "transactionHash": "0x763ddaeb99fe59c3218f65cf5669f3cc2ec956b075c79bb99028d53c97292231",
      "transactionIndex": "0x3f",
      "blockHash": "0x72eab8493a4e7cfa30aeafc80fda9c300868e55f312a5e3203ddf42d7a4f4dc3",
      "blockNumber": "0x906d49",
      "gasUsed": "0xb5a5",
      "effectiveGasPrice": "0xf424c",
      "from": "0x7310dd6ef89b7f829839f140c6840bc929ba2031",
      "to": "0x532ec3711c9e219910045e2bbfa0280ae0d8457e",
      "contractAddress": null
    }
  ],
  "libraries": [],
  "pending": [],
  "returns": {},
  "timestamp": 1761128161425,
  "chain": 11155111,
  "commit": "0260dec"
}