{
  "transactions": [
    {
      "hash": "0xa447814540dd04e6d4bd97cab0aee7812340c5b9c7bbd5fc10fc03c4794e0f0f",
      "transactionType": "CALL",
      "contractName": null,
      "contractAddress": "0xfff9976782d46cc05630d1f6ebab18b2324d6b14",
      "function": "deposit()",
      "arguments": [],
      "transaction": {
        "from": "0x7310dd6ef89b7f829839f140c6840bc929ba2031",
        "to": "0xfff9976782d46cc05630d1f6ebab18b2324d6b14",
        "gas": "0x9f9b",
        "value": "0x11c37937e08000",
        "input": "0xd0e30db0",
        "nonce": "0x8f",
        "chainId": "0xaa36a7"
      },
      "additionalContracts": [],
      "isFixedGasLimit": false
    },
    {
      "hash": "0x8a93a203700c682992d95744666931b1964e1de7f0225aa8378ea3ca3c429722",
      "transactionType": "CALL",
      "contractName": null,
      "contractAddress": "0xfff9976782d46cc05630d1f6ebab18b2324d6b14",
      "function": "approve(address,uint256)",
      "arguments": [
        "0x1238536071E1c677A632429e3655c799b22cDA52",
        "115792089237316195423570985008687907853269984665640564039457584007913129639935"
      ],
      "transaction": {
        "from": "0x7310dd6ef89b7f829839f140c6840bc929ba2031",
        "to": "0xfff9976782d46cc05630d1f6ebab18b2324d6b14",
        "gas": "0x8ec9",
        "value": "0x0",
        "input": "0x095ea7b30000000000000000000000001238536071e1c677a632429e3655c799b22cda52ffffffffffffffffffffffffffffffffffffffffffffffffffffffffffffffff",
        "nonce": "0x90",
        "chainId": "0xaa36a7"
      },
      "additionalContracts": [],
      "isFixedGasLimit": false
    },
    {
      "hash": "0xec73a993282ee5fd2b6b9f72f34675c3739bb3f4b06c853c6103782d055050dc",
      "transactionType": "CALL",
      "contractName": null,
      "contractAddress": "0x532ec3711c9e219910045e2bbfa0280ae0d8457e",
      "function": "approve(address,uint256)",
      "arguments": [
        "0x1238536071E1c677A632429e3655c799b22cDA52",
        "115792089237316195423570985008687907853269984665640564039457584007913129639935"
      ],
      "transaction": {
        "from": "0x7310dd6ef89b7f829839f140c6840bc929ba2031",
        "to": "0x532ec3711c9e219910045e2bbfa0280ae0d8457e",
        "gas": "0x90d7",
        "value": "0x0",
        "input": "0x095ea7b30000000000000000000000001238536071e1c677a632429e3655c799b22cda52ffffffffffffffffffffffffffffffffffffffffffffffffffffffffffffffff",
        "nonce": "0x91",
        "chainId": "0xaa36a7"
      },
      "additionalContracts": [],
      "isFixedGasLimit": false
    },
    {
      "hash": "0x9439eef16f302268591a100c102ec5ab59ef479c1d09a72828d21d4d4c08bd9a",
      "transactionType": "CALL",
      "contractName": null,
      "contractAddress": "0x1238536071e1c677a632429e3655c799b22cda52",
      "function": "mint((address,address,uint24,int24,int24,uint256,uint256,uint256,uint256,address,uint256))",
      "arguments": [
        "(0x532Ec3711C9E219910045e2bBfA0280ae0d8457e, 0xfFf9976782d46CC05630D1f6eBAb18b2324d6B14, 10000, -19200, 20600, 5000000000000000, 5000000000000000, 0, 0, 0x7310Dd6EF89b7f829839F140C6840bc929ba2031, 1761127188)"
      ],
      "transaction": {
        "from": "0x7310dd6ef89b7f829839f140c6840bc929ba2031",
        "to": "0x1238536071e1c677a632429e3655c799b22cda52",
        "gas": "0x72519",
        "value": "0x0",
        "input": "0x88316456000000000000000000000000532ec3711c9e219910045e2bbfa0280ae0d8457e000000000000000000000000fff9976782d46cc05630d1f6ebab18b2324d6b140000000000000000000000000000000000000000000000000000000000002710ffffffffffffffffffffffffffffffffffffffffffffffffffffffffffffb50000000000000000000000000000000000000000000000000000000000000050780000000000000000000000000000000000000000000000000011c37937e080000000000000000000000000000000000000000000000000000011c37937e08000000000000000000000000000000000000000000000000000000000000000000000000000000000000000000000000000000000000000000000000000000000000000000000000000000000007310dd6ef89b7f829839f140c6840bc929ba20310000000000000000000000000000000000000000000000000000000068f8ab14",
        "nonce": "0x92",
        "chainId": "0xaa36a7"
      },
      "additionalContracts": [],
      "isFixedGasLimit": false
    }
  ],
  "receipts": [
    {
      "status": "0x1",
      "cumulativeGasUsed": "0x784d6c",
      "logs": [
        {
          "address": "0xfff9976782d46cc05630d1f6ebab18b2324d6b14",
          "topics": [
            "0xe1fffcc4923d04b559f4d29a8bfc6cda04eb5b0d3c460751c2402c5c5cc9109c",
            "0x0000000000000000000000007310dd6ef89b7f829839f140c6840bc929ba2031"
          ],
          "data": "0x0000000000000000000000000000000000000000000000000011c37937e08000",
          "blockHash": "0x902898727d9f959f082669f79de23b1270827c444f8b6acea79a66543f671923",
          "blockNumber": "0x906ce7",
          "blockTimestamp": "0x68f8aa00",
          "transactionHash": "0xa447814540dd04e6d4bd97cab0aee7812340c5b9c7bbd5fc10fc03c4794e0f0f",
          "transactionIndex": "0x43",
          "logIndex": "0x68",
          "removed": false
        }
      ],
      "logsBloom": "0x00000000000000000000000000000000000000000000000000000000000000000000000000000000000000000008000000000000000000000000000000000000000000000000000000000100000000000000000000000000000000008000000000000000000000000000000000000000000000000000000000000000000000000040000000000000000000000000000000000001000000000000000000000000000020000000000000000000000000000000000000000000000000000000000000000000000000000002000000000000000000000000000000000000000000000000000000000000000000000000000800000000000000400000000000000000",
      "type": "0x0",
      "transactionHash": "0xa447814540dd04e6d4bd97cab0aee7812340c5b9c7bbd5fc10fc03c4794e0f0f",
      "transactionIndex": "0x43",
      "blockHash": "0x902898727d9f959f082669f79de23b1270827c444f8b6acea79a66543f671923",
      "blockNumber": "0x906ce7",
      "gasUsed": "0x6d22",
      "effectiveGasPrice": "0xf424a",
      "from": "0x7310dd6ef89b7f829839f140c6840bc929ba2031",
      "to": "0xfff9976782d46cc05630d1f6ebab18b2324d6b14",
      "contractAddress": null
    },
    {
      "status": "0x1",
      "cumulativeGasUsed": "0x78b4cc",
      "logs": [
        {
          "address": "0xfff9976782d46cc05630d1f6ebab18b2324d6b14",
          "topics": [
            "0x8c5be1e5ebec7d5bd14f71427d1e84f3dd0314c0f7b2291e5b200ac8c7c3b925",
            "0x0000000000000000000000007310dd6ef89b7f829839f140c6840bc929ba2031",
            "0x0000000000000000000000001238536071e1c677a632429e3655c799b22cda52"
          ],
          "data": "0xffffffffffffffffffffffffffffffffffffffffffffffffffffffffffffffff",
          "blockHash": "0x902898727d9f959f082669f79de23b1270827c444f8b6acea79a66543f671923",
          "blockNumber": "0x906ce7",
          "blockTimestamp": "0x68f8aa00",
          "transactionHash": "0x8a93a203700c682992d95744666931b1964e1de7f0225aa8378ea3ca3c429722",
          "transactionIndex": "0x44",
          "logIndex": "0x69",
          "removed": false
        }
      ],
      "logsBloom": "0x00000000000000000000000000000000000000000000000000000000000000000000000000000000000000000008000000000000000000000000000000200000000000000000000000000100000000000000000000000000000000000000000000000000000000000000000000000000000000000000000000000000000000000040000000000000000000010000000000000000000000000000000000000000020020000000000000000000000000000000000000000000000000000000000000000000000000000002000000000000002000000000000000000000800000000010000000000000000000000000000800000000000000000000000000000000",
      "type": "0x0",
      "transactionHash": "0x8a93a203700c682992d95744666931b1964e1de7f0225aa8378ea3ca3c429722",
      "transactionIndex": "0x44",
      "blockHash": "0x902898727d9f959f082669f79de23b1270827c444f8b6acea79a66543f671923",
      "blockNumber": "0x906ce7",
      "gasUsed": "0x6760",
      "effectiveGasPrice": "0xf424a",
      "from": "0x7310dd6ef89b7f829839f140c6840bc929ba2031",
      "to": "0xfff9976782d46cc05630d1f6ebab18b2324d6b14",
      "contractAddress": null
    },
    {
      "status": "0x1",
      "cumulativeGasUsed": "0x791daa",
      "logs": [
        {
          "address": "0x532ec3711c9e219910045e2bbfa0280ae0d8457e",
          "topics": [
            "0x8c5be1e5ebec7d5bd14f71427d1e84f3dd0314c0f7b2291e5b200ac8c7c3b925",
            "0x0000000000000000000000007310dd6ef89b7f829839f140c6840bc929ba2031",
            "0x0000000000000000000000001238536071e1c677a632429e3655c799b22cda52"
          ],
          "data": "0xffffffffffffffffffffffffffffffffffffffffffffffffffffffffffffffff",
          "blockHash": "0x902898727d9f959f082669f79de23b1270827c444f8b6acea79a66543f671923",
          "blockNumber": "0x906ce7",
          "blockTimestamp": "0x68f8aa00",
          "transactionHash": "0xec73a993282ee5fd2b6b9f72f34675c3739bb3f4b06c853c6103782d055050dc",
          "transactionIndex": "0x45",
          "logIndex": "0x6a",
          "removed": false
        }
      ],
      "logsBloom": "0x00000000000000000000000000000000000000000000000000000000000000000000000000000000400000000008000000000000000000000000000000200000000000000000000000000100000000000000000000000000000000000000000000000000000000000000000000000000000000000000000000000000000000000000000000040000000000010000000000000000000000000000000000000000020000000000000000000000000000000000000000000000000000000000000000000000000000000000000000000000002000000000000000000000800000080010000000000000000000000000000800000000000000000000000000000000",
      "type": "0x0",
      "transactionHash": "0xec73a993282ee5fd2b6b9f72f34675c3739bb3f4b06c853c6103782d055050dc",
      "transactionIndex": "0x45",
      "blockHash": "0x902898727d9f959f082669f79de23b1270827c444f8b6acea79a66543f671923",
      "blockNumber": "0x906ce7",
      "gasUsed": "0x68de",
      "effectiveGasPrice": "0xf424a",
      "from": "0x7310dd6ef89b7f829839f140c6840bc929ba2031",
      "to": "0x532ec3711c9e219910045e2bbfa0280ae0d8457e",
      "contractAddress": null
    },
    {
      "status": "0x1",
      "cumulativeGasUsed": "0x7e0055",
      "logs": [
        {
          "address": "0x532ec3711c9e219910045e2bbfa0280ae0d8457e",
          "topics": [
            "0xddf252ad1be2c89b69c2b068fc378daa952ba7f163c4a11628f55a4df523b3ef",
            "0x0000000000000000000000007310dd6ef89b7f829839f140c6840bc929ba2031",
            "0x00000000000000000000000010c6ced34a939d54385c2983ea31c659c38a095d"
          ],
          "data": "0x00000000000000000000000000000000000000000000000000109a13f1e91180",
          "blockHash": "0x902898727d9f959f082669f79de23b1270827c444f8b6acea79a66543f671923",
          "blockNumber": "0x906ce7",
          "blockTimestamp": "0x68f8aa00",
          "transactionHash": "0x9439eef16f302268591a100c102ec5ab59ef479c1d09a72828d21d4d4c08bd9a",
          "transactionIndex": "0x46",
          "logIndex": "0x6b",
          "removed": false
        },
        {
          "address": "0xfff9976782d46cc05630d1f6ebab18b2324d6b14",
          "topics": [
            "0xddf252ad1be2c89b69c2b068fc378daa952ba7f163c4a11628f55a4df523b3ef",
            "0x0000000000000000000000007310dd6ef89b7f829839f140c6840bc929ba2031",
            "0x00000000000000000000000010c6ced34a939d54385c2983ea31c659c38a095d"
          ],
          "data": "0x0000000000000000000000000000000000000000000000000011c37937e08000",
          "blockHash": "0x902898727d9f959f082669f79de23b1270827c444f8b6acea79a66543f671923",
          "blockNumber": "0x906ce7",
          "blockTimestamp": "0x68f8aa00",
          "transactionHash": "0x9439eef16f302268591a100c102ec5ab59ef479c1d09a72828d21d4d4c08bd9a",
          "transactionIndex": "0x46",
          "logIndex": "0x6c",
          "removed": false
        },
        {
          "address": "0x10c6ced34a939d54385c2983ea31c659c38a095d",
          "topics": [
            "0x7a53080ba414158be7ec69b987b5fb7d07dee101fe85488f0853ae16239d0bde",
            "0x0000000000000000000000001238536071e1c677a632429e3655c799b22cda52",
            "0xffffffffffffffffffffffffffffffffffffffffffffffffffffffffffffb500",
            "0x0000000000000000000000000000000000000000000000000000000000005078"
          ],
          "data": "0x0000000000000000000000001238536071e1c677a632429e3655c799b22cda52000000000000000000000000000000000000000000000000001b3f5629460bc400000000000000000000000000000000000000000000000000109a13f1e911800000000000000000000000000000000000000000000000000011c37937e08000",
          "blockHash": "0x902898727d9f959f082669f79de23b1270827c444f8b6acea79a66543f671923",
          "blockNumber": "0x906ce7",
          "blockTimestamp": "0x68f8aa00",
          "transactionHash": "0x9439eef16f302268591a100c102ec5ab59ef479c1d09a72828d21d4d4c08bd9a",
          "transactionIndex": "0x46",
          "logIndex": "0x6d",
          "removed": false
        },
        {
          "address": "0x1238536071e1c677a632429e3655c799b22cda52",
          "topics": [
            "0xddf252ad1be2c89b69c2b068fc378daa952ba7f163c4a11628f55a4df523b3ef",
            "0x0000000000000000000000000000000000000000000000000000000000000000",
            "0x0000000000000000000000007310dd6ef89b7f829839f140c6840bc929ba2031",
            "0x0000000000000000000000000000000000000000000000000000000000033c4f"
          ],
          "data": "0x",
          "blockHash": "0x902898727d9f959f082669f79de23b1270827c444f8b6acea79a66543f671923",
          "blockNumber": "0x906ce7",
          "blockTimestamp": "0x68f8aa00",
          "transactionHash": "0x9439eef16f302268591a100c102ec5ab59ef479c1d09a72828d21d4d4c08bd9a",
          "transactionIndex": "0x46",
          "logIndex": "0x6e",
          "removed": false
        },
        {
          "address": "0x1238536071e1c677a632429e3655c799b22cda52",
          "topics": [
            "0x3067048beee31b25b2f1681f88dac838c8bba36af25bfb2b7cf7473a5847e35f",
            "0x0000000000000000000000000000000000000000000000000000000000033c4f"
          ],
          "data": "0x000000000000000000000000000000000000000000000000001b3f5629460bc400000000000000000000000000000000000000000000000000109a13f1e911800000000000000000000000000000000000000000000000000011c37937e08000",
          "blockHash": "0x902898727d9f959f082669f79de23b1270827c444f8b6acea79a66543f671923",
          "blockNumber": "0x906ce7",
          "blockTimestamp": "0x68f8aa00",
          "transactionHash": "0x9439eef16f302268591a100c102ec5ab59ef479c1d09a72828d21d4d4c08bd9a",
          "transactionIndex": "0x46",
          "logIndex": "0x6f",
          "removed": false
        }
      ],
      "logsBloom": "0x00000000000000000000100000000004000000000004000000000000000000000000000000000000400000000048000000000000000000000400000000000000000000000000000000000108000000002000000000000001200000000000000020000000020000000000000000000800000000000800000000000010000000000040000008040000000000010010000000000000000004000000000001200000000020000000000000000000000000000000000000200000000008002000000000000002000000000003080000020000002000000000000000000000800020080000000000000000000000000000000800000000000000000000000000000800",
      "type": "0x0",
      "transactionHash": "0x9439eef16f302268591a100c102ec5ab59ef479c1d09a72828d21d4d4c08bd9a",
      "transactionIndex": "0x46",
      "blockHash": "0x902898727d9f959f082669f79de23b1270827c444f8b6acea79a66543f671923",
      "blockNumber": "0x906ce7",
      "gasUsed": "0x4e2ab",
      "effectiveGasPrice": "0xf424a",
      "from": "0x7310dd6ef89b7f829839f140c6840bc929ba2031",
      "to": "0x1238536071e1c677a632429e3655c799b22cda52",
      "contractAddress": null
    }
  ],
  "libraries": [],
  "pending": [],
  "returns": {},
  "timestamp": 1761126913225,
  "chain": 11155111,
  "commit": "0260dec"
}