{
  "transactions": [
    {
      "hash": "0xfea702465468ca3eb69034a592f6c337f24e843bd2c688687faeff3247019f1c",
      "transactionType": "CALL",
      "contractName": null,
      "contractAddress": "0x474ed38c256a7fa0f3b8c48496ce1102ab0ea91e",
      "function": "setMinter(address,bool)",
      "arguments": [
        "0x47dAc5063c526dBc6f157093DD1D62d9DE8891c5",
        "true"
      ],
      "transaction": {
        "from": "0x7310dd6ef89b7f829839f140c6840bc929ba2031",
        "to": "0x474ed38c256a7fa0f3b8c48496ce1102ab0ea91e",
        "gas": "0x115a9",
        "value": "0x0",
        "input": "0xcf456ae700000000000000000000000047dac5063c526dbc6f157093dd1d62d9de8891c50000000000000000000000000000000000000000000000000000000000000001",
        "nonce": "0x2be",
        "chainId": "0x1"
      },
      "additionalContracts": [],
      "isFixedGasLimit": false
    },
    {
      "hash": "0xf2f02eea5c0385851721552e1b389502e62fe65c89690c8e3db8e48929f271db",
      "transactionType": "CALL",
      "contractName": null,
      "contractAddress": "0x47b3ef629d9cb8dfcf8a6c61058338f4e99d7953",
      "function": "addStrategy(address,uint256)",
      "arguments": [
        "0x47B2659747d6A7E00c8251c3C3f7e92625a8cf6f",
        "10000"
      ],
      "transaction": {
        "from": "0x7310dd6ef89b7f829839f140c6840bc929ba2031",
        "to": "0x47b3ef629d9cb8dfcf8a6c61058338f4e99d7953",
        "gas": "0x3398a",
        "value": "0x0",
        "input": "0xc9411e2200000000000000000000000047b2659747d6a7e00c8251c3c3f7e92625a8cf6f0000000000000000000000000000000000000000000000000000000000002710",
        "nonce": "0x2bf",
        "chainId": "0x1"
      },
      "additionalContracts": [],
      "isFixedGasLimit": false
    },
    {
      "hash": "0xc4f431ec1c26f79152678d28a82a2d0110f3b94db42c9b2b2d6a49c4f9ecffec",
      "transactionType": "CALL",
      "contractName": null,
      "contractAddress": "0x47c81c9a70ca7518d3b911bc8c8b11000e92f59e",
      "function": "transferOwnership(address)",
      "arguments": [
        "0xe5a1d534eb7f00397361F645f0F39e5D16cc1De3"
      ],
      "transaction": {
        "from": "0x7310dd6ef89b7f829839f140c6840bc929ba2031",
        "to": "0x47c81c9a70ca7518d3b911bc8c8b11000e92f59e",
        "gas": "0x9afd",
        "value": "0x0",
        "input": "0xf2fde38b000000000000000000000000e5a1d534eb7f00397361f645f0f39e5d16cc1de3",
        "nonce": "0x2c0",
        "chainId": "0x1"
      },
      "additionalContracts": [],
      "isFixedGasLimit": false
    },
    {
      "hash": "0x5364f836831b1d4b11beb362373517c96b6ce57bdc345788876ba401dfbe7311",
      "transactionType": "CALL",
      "contractName": null,
      "contractAddress": "0x47b3ef629d9cb8dfcf8a6c61058338f4e99d7953",
      "function": "transferOwnership(address)",
      "arguments": [
        "0xe5a1d534eb7f00397361F645f0F39e5D16cc1De3"
      ],
      "transaction": {
        "from": "0x7310dd6ef89b7f829839f140c6840bc929ba2031",
        "to": "0x47b3ef629d9cb8dfcf8a6c61058338f4e99d7953",
        "gas": "0xa5c5",
        "value": "0x0",
        "input": "0xf2fde38b000000000000000000000000e5a1d534eb7f00397361f645f0f39e5d16cc1de3",
        "nonce": "0x2c1",
        "chainId": "0x1"
      },
      "additionalContracts": [],
      "isFixedGasLimit": false
    },
    {
      "hash": "0x63e4f619557bf7398008bdd66209e454266433bc8412acd5e6b1ac5b678bf4af",
      "transactionType": "CALL",
      "contractName": null,
      "contractAddress": "0x474ed38c256a7fa0f3b8c48496ce1102ab0ea91e",
      "function": "transferOwnership(address)",
      "arguments": [
        "0xe5a1d534eb7f00397361F645f0F39e5D16cc1De3"
      ],
      "transaction": {
        "from": "0x7310dd6ef89b7f829839f140c6840bc929ba2031",
        "to": "0x474ed38c256a7fa0f3b8c48496ce1102ab0ea91e",
        "gas": "0x9ee1",
        "value": "0x0",
        "input": "0xf2fde38b000000000000000000000000e5a1d534eb7f00397361f645f0f39e5d16cc1de3",
        "nonce": "0x2c2",
        "chainId": "0x1"
      },
      "additionalContracts": [],
      "isFixedGasLimit": false
    },
    {
      "hash": "0x1239c6ded28021864dcbfdad8124758324986d95841ee2a40583ba25e494fadd",
      "transactionType": "CALL",
      "contractName": null,
      "contractAddress": "0x47dac5063c526dbc6f157093dd1d62d9de8891c5",
      "function": "transferOwnership(address)",
      "arguments": [
        "0xe5a1d534eb7f00397361F645f0F39e5D16cc1De3"
      ],
      "transaction": {
        "from": "0x7310dd6ef89b7f829839f140c6840bc929ba2031",
        "to": "0x47dac5063c526dbc6f157093dd1d62d9de8891c5",
        "gas": "0x9c72",
        "value": "0x0",
        "input": "0xf2fde38b000000000000000000000000e5a1d534eb7f00397361f645f0f39e5d16cc1de3",
        "nonce": "0x2c3",
        "chainId": "0x1"
      },
      "additionalContracts": [],
      "isFixedGasLimit": false
    },
    {
      "hash": "0x77aec4ca49217cefafb9638884f4f1f7524396b9f7d16d43ae02fcbd62ac5aa9",
      "transactionType": "CALL",
      "contractName": null,
      "contractAddress": "0x47b2659747d6a7e00c8251c3c3f7e92625a8cf6f",
      "function": "transferOwnership(address)",
      "arguments": [
        "0xe5a1d534eb7f00397361F645f0F39e5D16cc1De3"
      ],
      "transaction": {
        "from": "0x7310dd6ef89b7f829839f140c6840bc929ba2031",
        "to": "0x47b2659747d6a7e00c8251c3c3f7e92625a8cf6f",
        "gas": "0xa56a",
        "value": "0x0",
        "input": "0xf2fde38b000000000000000000000000e5a1d534eb7f00397361f645f0f39e5d16cc1de3",
        "nonce": "0x2c4",
        "chainId": "0x1"
      },
      "additionalContracts": [],
      "isFixedGasLimit": false
    }
  ],
  "receipts": [],
  "libraries": [],
  "pending": [
    "0xfea702465468ca3eb69034a592f6c337f24e843bd2c688687faeff3247019f1c",
    "0xf2f02eea5c0385851721552e1b389502e62fe65c89690c8e3db8e48929f271db",
    "0xc4f431ec1c26f79152678d28a82a2d0110f3b94db42c9b2b2d6a49c4f9ecffec",
    "0x5364f836831b1d4b11beb362373517c96b6ce57bdc345788876ba401dfbe7311",
    "0x63e4f619557bf7398008bdd66209e454266433bc8412acd5e6b1ac5b678bf4af",
    "0x1239c6ded28021864dcbfdad8124758324986d95841ee2a40583ba25e494fadd",
    "0x77aec4ca49217cefafb9638884f4f1f7524396b9f7d16d43ae02fcbd62ac5aa9"
  ],
  "returns": {},
  "timestamp": 1761916944417,
  "chain": 1,
  "commit": "a71dda4"
}