{
  "transactions": [
    {
      "hash": "0x43f84df8535fc42e39263ff0a450552ec8f20313dba9b1b6aa20ef676ada6de9",
      "transactionType": "CALL",
      "contractName": null,
      "contractAddress": "0x82af49447d8a07e3bd95bd0d56f35241523fbab1",
      "function": "deposit()",
      "arguments": [],
      "transaction": {
        "from": "0x7310dd6ef89b7f829839f140c6840bc929ba2031",
        "to": "0x82af49447d8a07e3bd95bd0d56f35241523fbab1",
        "gas": "0x12bc1",
        "value": "0x5af3107a4000",
        "input": "0xd0e30db0",
        "nonce": "0xec",
        "chainId": "0xa4b1"
      },
      "additionalContracts": [],
      "isFixedGasLimit": false
    },
    {
      "hash": "0xdbad3cfe495e97f89f5fb9a8f3c7899ac5f083135c1d423c4cfd6e44453a9016",
      "transactionType": "CALL",
      "contractName": null,
      "contractAddress": "0x82af49447d8a07e3bd95bd0d56f35241523fbab1",
      "function": "approve(address,uint256)",
      "arguments": [
        "0xE592427A0AEce92De3Edee1F18E0157C05861564",
        "100000000000000"
      ],
      "transaction": {
        "from": "0x7310dd6ef89b7f829839f140c6840bc929ba2031",
        "to": "0x82af49447d8a07e3bd95bd0d56f35241523fbab1",
        "gas": "0x11512",
        "value": "0x0",
        "input": "0x095ea7b3000000000000000000000000e592427a0aece92de3edee1f18e0157c0586156400000000000000000000000000000000000000000000000000005af3107a4000",
        "nonce": "0xed",
        "chainId": "0xa4b1"
      },
      "additionalContracts": [],
      "isFixedGasLimit": false
    },
    {
      "hash": "0xabb736496b2a58f3d2452ccdae4387df5f28f353dbf3dba99ebf323deb333927",
      "transactionType": "CALL",
      "contractName": null,
      "contractAddress": "0xe592427a0aece92de3edee1f18e0157c05861564",
      "function": "exactInputSingle((address,address,uint24,address,uint256,uint256,uint256,uint160))",
      "arguments": [
        "(0x82aF49447D8a07e3bd95BD0d56f35241523fBab1, 0xf83922BcD5a80C07ccb61dbA5E7f7A02cC05a1fD, 10000, 0x7310Dd6EF89b7f829839F140C6840bc929ba2031, 1761134509, 100000000000000, 0, 0)"
      ],
      "transaction": {
        "from": "0x7310dd6ef89b7f829839f140c6840bc929ba2031",
        "to": "0xe592427a0aece92de3edee1f18e0157c05861564",
        "gas": "0x38c4b",
        "value": "0x0",
        "input": "0x414bf38900000000000000000000000082af49447d8a07e3bd95bd0d56f35241523fbab1000000000000000000000000f83922bcd5a80c07ccb61dba5e7f7a02cc05a1fd00000000000000000000000000000000000000000000000000000000000027100000000000000000000000007310dd6ef89b7f829839f140c6840bc929ba20310000000000000000000000000000000000000000000000000000000068f8c7ad00000000000000000000000000000000000000000000000000005af3107a400000000000000000000000000000000000000000000000000000000000000000000000000000000000000000000000000000000000000000000000000000000000",
        "nonce": "0xee",
        "chainId": "0xa4b1"
      },
      "additionalContracts": [],
      "isFixedGasLimit": false
    }
  ],
  "receipts": [
    {
      "status": "0x1",
      "cumulativeGasUsed": "0x6462f",
      "logs": [
        {
          "address": "0x82af49447d8a07e3bd95bd0d56f35241523fbab1",
          "topics": [
            "0xddf252ad1be2c89b69c2b068fc378daa952ba7f163c4a11628f55a4df523b3ef",
            "0x0000000000000000000000000000000000000000000000000000000000000000",
            "0x0000000000000000000000007310dd6ef89b7f829839f140c6840bc929ba2031"
          ],
          "data": "0x00000000000000000000000000000000000000000000000000005af3107a4000",
          "blockHash": "0x4d861e5178ccd5636050330b1459e5370c27d035b44e54defbeb2906c1f58bc6",
          "blockNumber": "0x17607fcd",
          "transactionHash": "0x43f84df8535fc42e39263ff0a450552ec8f20313dba9b1b6aa20ef676ada6de9",
          "transactionIndex": "0x8",
          "logIndex": "0x3",
          "removed": false
        }
      ],
      "logsBloom": "0x00000000000000000000000000000000000000000000000000000000000000000000000000000000000000000008000000004000000000000000000000000000000000010000000000000108000000000000000000000000000000000000000000000000020000000000000400000800000000000000000000000010000000000000000000000000000000000000000000000000000000000000000000000000000000000000000000000000000000000000000000000000000000000000000000000002000000000000000000000000000000000000000000000000000020000000000000000000000000000000000800000000000000000000000000000000",
      "type": "0x2",
      "transactionHash": "0x43f84df8535fc42e39263ff0a450552ec8f20313dba9b1b6aa20ef676ada6de9",
      "transactionIndex": "0x8",
      "blockHash": "0x4d861e5178ccd5636050330b1459e5370c27d035b44e54defbeb2906c1f58bc6",
      "blockNumber": "0x17607fcd",
      "gasUsed": "0xe32e",
      "effectiveGasPrice": "0x989680",
      "from": "0x7310dd6ef89b7f829839f140c6840bc929ba2031",
      "to": "0x82af49447d8a07e3bd95bd0d56f35241523fbab1",
      "contractAddress": null,
      "gasUsedForL1": "0xb7",
      "l1BlockNumber": "0x1689c14",
      "timeboosted": false
    },
    {
      "status": "0x1",
      "cumulativeGasUsed": "0x135cad",
      "logs": [
        {
          "address": "0x82af49447d8a07e3bd95bd0d56f35241523fbab1",
          "topics": [
            "0x8c5be1e5ebec7d5bd14f71427d1e84f3dd0314c0f7b2291e5b200ac8c7c3b925",
            "0x0000000000000000000000007310dd6ef89b7f829839f140c6840bc929ba2031",
            "0x000000000000000000000000e592427a0aece92de3edee1f18e0157c05861564"
          ],
          "data": "0x00000000000000000000000000000000000000000000000000005af3107a4000",
          "blockHash": "0xf7053c968b46a8d398cad6bae24a7121ef78e0190b74e1677a56e6c2434fb584",
          "blockNumber": "0x17607fd3",
          "transactionHash": "0xdbad3cfe495e97f89f5fb9a8f3c7899ac5f083135c1d423c4cfd6e44453a9016",
          "transactionIndex": "0x5",
          "logIndex": "0x0",
          "removed": false
        }
      ],
      "logsBloom": "0x00000002000000000000000000000000000000000000000000000000000000000000000000000000000000000008000000004000000000000000000000200000000000010000000000000100000000000000000000000000000000000000000000000000000000000000100400000000000000000000000000000000000000000000000000000000000000000000000000000000000000000000000000000000020000000000000000000000800000000000000000000000000000000000000000000000000000000000000000000000000000000000000000000000000000000010000000000000000000000000000800000000000000000000000000000000",
      "type": "0x2",
      "transactionHash": "0xdbad3cfe495e97f89f5fb9a8f3c7899ac5f083135c1d423c4cfd6e44453a9016",
      "transactionIndex": "0x5",
      "blockHash": "0xf7053c968b46a8d398cad6bae24a7121ef78e0190b74e1677a56e6c2434fb584",
      "blockNumber": "0x17607fd3",
      "gasUsed": "0xd1c4",
      "effectiveGasPrice": "0x989680",
      "from": "0x7310dd6ef89b7f829839f140c6840bc929ba2031",
      "to": "0x82af49447d8a07e3bd95bd0d56f35241523fbab1",
      "contractAddress": null,
      "gasUsedForL1": "0x110",
      "l1BlockNumber": "0x1689c15",
      "timeboosted": false
    },
    {
      "status": "0x1",
      "cumulativeGasUsed": "0x37700",
      "logs": [
        {
          "address": "0xf83922bcd5a80c07ccb61dba5e7f7a02cc05a1fd",
          "topics": [
            "0xddf252ad1be2c89b69c2b068fc378daa952ba7f163c4a11628f55a4df523b3ef",
            "0x000000000000000000000000f6ff96022b5e025aea8d7d5b0484838234c17f10",
            "0x000000000000000000000000f83922bcd5a80c07ccb61dba5e7f7a02cc05a1fd"
          ],
          "data": "0x000000000000000000000000000000000000000000000000000381791c238971",
          "blockHash": "0x5d8401c39f59cdb9ed6d9134cc08e74d4908c30f86ed6db702d06abd771aa469",
          "blockNumber": "0x17607fd9",
          "transactionHash": "0xabb736496b2a58f3d2452ccdae4387df5f28f353dbf3dba99ebf323deb333927",
          "transactionIndex": "0x2",
          "logIndex": "0x0",
          "removed": false
        },
        {
          "address": "0xf83922bcd5a80c07ccb61dba5e7f7a02cc05a1fd",
          "topics": [
            "0xddf252ad1be2c89b69c2b068fc378daa952ba7f163c4a11628f55a4df523b3ef",
            "0x000000000000000000000000f6ff96022b5e025aea8d7d5b0484838234c17f10",
            "0x0000000000000000000000007310dd6ef89b7f829839f140c6840bc929ba2031"
          ],
          "data": "0x00000000000000000000000000000000000000000000000000429bfd16a33375",
          "blockHash": "0x5d8401c39f59cdb9ed6d9134cc08e74d4908c30f86ed6db702d06abd771aa469",
          "blockNumber": "0x17607fd9",
          "transactionHash": "0xabb736496b2a58f3d2452ccdae4387df5f28f353dbf3dba99ebf323deb333927",
          "transactionIndex": "0x2",
          "logIndex": "0x1",
          "removed": false
        },
        {
          "address": "0xf83922bcd5a80c07ccb61dba5e7f7a02cc05a1fd",
          "topics": [
            "0xddf252ad1be2c89b69c2b068fc378daa952ba7f163c4a11628f55a4df523b3ef",
            "0x000000000000000000000000f83922bcd5a80c07ccb61dba5e7f7a02cc05a1fd",
            "0x0000000000000000000000007310dd6ef89b7f829839f140c6840bc929ba2031"
          ],
          "data": "0x0000000000000000000000000000000000000000000000000001c0bc8e11c4b8",
          "blockHash": "0x5d8401c39f59cdb9ed6d9134cc08e74d4908c30f86ed6db702d06abd771aa469",
          "blockNumber": "0x17607fd9",
          "transactionHash": "0xabb736496b2a58f3d2452ccdae4387df5f28f353dbf3dba99ebf323deb333927",
          "transactionIndex": "0x2",
          "logIndex": "0x2",
          "removed": false
        },
        {
          "address": "0xf83922bcd5a80c07ccb61dba5e7f7a02cc05a1fd",
          "topics": [
            "0xe39112dc9ca2018b6da1038f701804f9e2cb88c4448f88c4cfc7332a2d8cc50a",
            "0x0000000000000000000000007310dd6ef89b7f829839f140c6840bc929ba2031"
          ],
          "data": "0x0000000000000000000000000000000000000000000000000001c0bc8e11c4b80000000000000000000000000000000000000000000000000000000000000040000000000000000000000000000000000000000000000000000000000000000c6275795f74726561737572790000000000000000000000000000000000000000",
          "blockHash": "0x5d8401c39f59cdb9ed6d9134cc08e74d4908c30f86ed6db702d06abd771aa469",
          "blockNumber": "0x17607fd9",
          "transactionHash": "0xabb736496b2a58f3d2452ccdae4387df5f28f353dbf3dba99ebf323deb333927",
          "transactionIndex": "0x2",
          "logIndex": "0x3",
          "removed": false
        },
        {
          "address": "0xf83922bcd5a80c07ccb61dba5e7f7a02cc05a1fd",
          "topics": [
            "0xddf252ad1be2c89b69c2b068fc378daa952ba7f163c4a11628f55a4df523b3ef",
            "0x000000000000000000000000f83922bcd5a80c07ccb61dba5e7f7a02cc05a1fd",
            "0x0000000000000000000000007310dd6ef89b7f829839f140c6840bc929ba2031"
          ],
          "data": "0x0000000000000000000000000000000000000000000000000001c0bc8e11c4b9",
          "blockHash": "0x5d8401c39f59cdb9ed6d9134cc08e74d4908c30f86ed6db702d06abd771aa469",
          "blockNumber": "0x17607fd9",
          "transactionHash": "0xabb736496b2a58f3d2452ccdae4387df5f28f353dbf3dba99ebf323deb333927",
          "transactionIndex": "0x2",
          "logIndex": "0x4",
          "removed": false
        },
        {
          "address": "0xf83922bcd5a80c07ccb61dba5e7f7a02cc05a1fd",
          "topics": [
            "0xe39112dc9ca2018b6da1038f701804f9e2cb88c4448f88c4cfc7332a2d8cc50a",
            "0x0000000000000000000000007310dd6ef89b7f829839f140c6840bc929ba2031"
          ],
          "data": "0x0000000000000000000000000000000000000000000000000001c0bc8e11c4b9000000000000000000000000000000000000000000000000000000000000004000000000000000000000000000000000000000000000000000000000000000096275795f7661756c740000000000000000000000000000000000000000000000",
          "blockHash": "0x5d8401c39f59cdb9ed6d9134cc08e74d4908c30f86ed6db702d06abd771aa469",
          "blockNumber": "0x17607fd9",
          "transactionHash": "0xabb736496b2a58f3d2452ccdae4387df5f28f353dbf3dba99ebf323deb333927",
          "transactionIndex": "0x2",
          "logIndex": "0x5",
          "removed": false
        },
        {
          "address": "0xf83922bcd5a80c07ccb61dba5e7f7a02cc05a1fd",
          "topics": [
            "0x5634e504c4e61a8180de1151c73ea6453696a0279247b2ced2e111d75d1a9573",
            "0x000000000000000000000000f6ff96022b5e025aea8d7d5b0484838234c17f10",
            "0x0000000000000000000000007310dd6ef89b7f829839f140c6840bc929ba2031"
          ],
          "data": "0x00000000000000000000000000000000000000000000000000461d7632c6bce6000000000000000000000000000000000000000000000000000381791c2389710000000000000000000000000000000000000000000000000000000000000060000000000000000000000000000000000000000000000000000000000000000f6275795f747261646974696f6e616c0000000000000000000000000000000000",
          "blockHash": "0x5d8401c39f59cdb9ed6d9134cc08e74d4908c30f86ed6db702d06abd771aa469",
          "blockNumber": "0x17607fd9",
          "transactionHash": "0xabb736496b2a58f3d2452ccdae4387df5f28f353dbf3dba99ebf323deb333927",
          "transactionIndex": "0x2",
          "logIndex": "0x6",
          "removed": false
        },
        {
          "address": "0x82af49447d8a07e3bd95bd0d56f35241523fbab1",
          "topics": [
            "0xddf252ad1be2c89b69c2b068fc378daa952ba7f163c4a11628f55a4df523b3ef",
            "0x0000000000000000000000007310dd6ef89b7f829839f140c6840bc929ba2031",
            "0x000000000000000000000000f6ff96022b5e025aea8d7d5b0484838234c17f10"
          ],
          "data": "0x00000000000000000000000000000000000000000000000000005af3107a4000",
          "blockHash": "0x5d8401c39f59cdb9ed6d9134cc08e74d4908c30f86ed6db702d06abd771aa469",
          "blockNumber": "0x17607fd9",
          "transactionHash": "0xabb736496b2a58f3d2452ccdae4387df5f28f353dbf3dba99ebf323deb333927",
          "transactionIndex": "0x2",
          "logIndex": "0x7",
          "removed": false
        },
        {
          "address": "0x82af49447d8a07e3bd95bd0d56f35241523fbab1",
          "topics": [
            "0x8c5be1e5ebec7d5bd14f71427d1e84f3dd0314c0f7b2291e5b200ac8c7c3b925",
            "0x0000000000000000000000007310dd6ef89b7f829839f140c6840bc929ba2031",
            "0x000000000000000000000000e592427a0aece92de3edee1f18e0157c05861564"
          ],
          "data": "0x0000000000000000000000000000000000000000000000000000000000000000",
          "blockHash": "0x5d8401c39f59cdb9ed6d9134cc08e74d4908c30f86ed6db702d06abd771aa469",
          "blockNumber": "0x17607fd9",
          "transactionHash": "0xabb736496b2a58f3d2452ccdae4387df5f28f353dbf3dba99ebf323deb333927",
          "transactionIndex": "0x2",
          "logIndex": "0x8",
          "removed": false
        },
        {
          "address": "0xf6ff96022b5e025aea8d7d5b0484838234c17f10",
          "topics": [
            "0xc42079f94a6350d7e6235f29174924f928cc2ac818eb64fed8004e115fbcca67",
            "0x000000000000000000000000e592427a0aece92de3edee1f18e0157c05861564",
            "0x0000000000000000000000007310dd6ef89b7f829839f140c6840bc929ba2031"
          ],
          "data": "0x00000000000000000000000000000000000000000000000000005af3107a4000ffffffffffffffffffffffffffffffffffffffffffffffffffb9e289cd39431a000000000000000000000000000000000000000e1a163786cfd961811ee7255600000000000000000000000000000000000000000000000007f141aa0b2e538b000000000000000000000000000000000000000000000000000000000000cec0",
          "blockHash": "0x5d8401c39f59cdb9ed6d9134cc08e74d4908c30f86ed6db702d06abd771aa469",
          "blockNumber": "0x17607fd9",
          "transactionHash": "0xabb736496b2a58f3d2452ccdae4387df5f28f353dbf3dba99ebf323deb333927",
          "transactionIndex": "0x2",
          "logIndex": "0x9",
          "removed": false
        }
      ],
      "logsBloom": "0x00000002000000000004000000000000000000000001000000000000000000000000000000000000000000000008000000004000000020020000000000200000000000010000000800000108000000000000080000000200002000100000000000000000000008000000100400000000008000000000000000000030004800000000000000000000000000000000100000000000000000000000000000000040020000000000002000000000800000000001000000000000000000000000000000000002000000000000000000000100000000000000000000000000000200000010000000000000000000000000000800000000000000000000000000000000",
      "type": "0x2",
      "transactionHash": "0xabb736496b2a58f3d2452ccdae4387df5f28f353dbf3dba99ebf323deb333927",
      "transactionIndex": "0x2",
      "blockHash": "0x5d8401c39f59cdb9ed6d9134cc08e74d4908c30f86ed6db702d06abd771aa469",
      "blockNumber": "0x17607fd9",
      "gasUsed": "0x2936e",
      "effectiveGasPrice": "0x989680",
      "from": "0x7310dd6ef89b7f829839f140c6840bc929ba2031",
      "to": "0xe592427a0aece92de3edee1f18e0157c05861564",
      "contractAddress": null,
      "gasUsedForL1": "0x1d7",
      "l1BlockNumber": "0x1689c15",
      "timeboosted": false
    }
  ],
  "libraries": [],
  "pending": [],
  "returns": {},
  "timestamp": 1761134291063,
  "chain": 42161,
  "commit": "0260dec"
}