{
  "transactions": [
    {
      "hash": "0x5752b1c1ea18b7cdc6372556c87e58a254f54c55fc596d6be6e96b450ebb38cd",
      "transactionType": "CALL",
      "contractName": null,
      "contractAddress": "0x82af49447d8a07e3bd95bd0d56f35241523fbab1",
      "function": "deposit()",
      "arguments": [],
      "transaction": {
        "from": "0x7310dd6ef89b7f829839f140c6840bc929ba2031",
        "to": "0x82af49447d8a07e3bd95bd0d56f35241523fbab1",
        "gas": "0x12c39",
        "value": "0x5af3107a4000",
        "input": "0xd0e30db0",
        "nonce": "0xf0",
        "chainId": "0xa4b1"
      },
      "additionalContracts": [],
      "isFixedGasLimit": false
    },
    {
      "hash": "0x74f1599137dc13d45cfa699b071a09f4790d41dcb38296a7fdf14c3059ba1274",
      "transactionType": "CALL",
      "contractName": null,
      "contractAddress": "0x82af49447d8a07e3bd95bd0d56f35241523fbab1",
      "function": "approve(address,uint256)",
      "arguments": [
        "0xE592427A0AEce92De3Edee1F18E0157C05861564",
        "100000000000000"
      ],
      "transaction": {
        "from": "0x7310dd6ef89b7f829839f140c6840bc929ba2031",
        "to": "0x82af49447d8a07e3bd95bd0d56f35241523fbab1",
        "gas": "0x115bc",
        "value": "0x0",
        "input": "0x095ea7b3000000000000000000000000e592427a0aece92de3edee1f18e0157c0586156400000000000000000000000000000000000000000000000000005af3107a4000",
        "nonce": "0xf1",
        "chainId": "0xa4b1"
      },
      "additionalContracts": [],
      "isFixedGasLimit": false
    },
    {
      "hash": "0x53f66befcbc8a5b124ca2a27306c082018cbfabb47ae8707a4f81f24dbdf77f0",
      "transactionType": "CALL",
      "contractName": null,
      "contractAddress": "0xe592427a0aece92de3edee1f18e0157c05861564",
      "function": "exactInputSingle((address,address,uint24,address,uint256,uint256,uint256,uint160))",
      "arguments": [
        "(0x82aF49447D8a07e3bd95BD0d56f35241523fBab1, 0xf83922BcD5a80C07ccb61dbA5E7f7A02cC05a1fD, 10000, 0x7310Dd6EF89b7f829839F140C6840bc929ba2031, 1761135061, 100000000000000, 0, 0)"
      ],
      "transaction": {
        "from": "0x7310dd6ef89b7f829839f140c6840bc929ba2031",
        "to": "0xe592427a0aece92de3edee1f18e0157c05861564",
        "gas": "0x478a6",
        "value": "0x0",
        "input": "0x414bf38900000000000000000000000082af49447d8a07e3bd95bd0d56f35241523fbab1000000000000000000000000f83922bcd5a80c07ccb61dba5e7f7a02cc05a1fd00000000000000000000000000000000000000000000000000000000000027100000000000000000000000007310dd6ef89b7f829839f140c6840bc929ba20310000000000000000000000000000000000000000000000000000000068f8c9d500000000000000000000000000000000000000000000000000005af3107a400000000000000000000000000000000000000000000000000000000000000000000000000000000000000000000000000000000000000000000000000000000000",
        "nonce": "0xf2",
        "chainId": "0xa4b1"
      },
      "additionalContracts": [],
      "isFixedGasLimit": false
    }
  ],
  "receipts": [
    {
      "status": "0x1",
      "cumulativeGasUsed": "0x59f75",
      "logs": [
        {
          "address": "0x82af49447d8a07e3bd95bd0d56f35241523fbab1",
          "topics": [
            "0xddf252ad1be2c89b69c2b068fc378daa952ba7f163c4a11628f55a4df523b3ef",
            "0x0000000000000000000000000000000000000000000000000000000000000000",
            "0x0000000000000000000000007310dd6ef89b7f829839f140c6840bc929ba2031"
          ],
          "data": "0x00000000000000000000000000000000000000000000000000005af3107a4000",
          "blockHash": "0xd65d3a6f598d5a2bf4f9b3b2e026da91c5e59b877c4dac43eaea403451ca9550",
          "blockNumber": "0x176088a0",
          "transactionHash": "0x5752b1c1ea18b7cdc6372556c87e58a254f54c55fc596d6be6e96b450ebb38cd",
          "transactionIndex": "0x3",
          "logIndex": "0xa",
          "removed": false
        }
      ],
      "logsBloom": "0x00000000000000000000000000000000000000000000000000000000000000000000000000000000000000000008000000004000000000000000000000000000000000010000000000000108000000000000000000000000000000000000000000000000020000000000000400000800000000000000000000000010000000000000000000000000000000000000000000000000000000000000000000000000000000000000000000000000000000000000000000000000000000000000000000000002000000000000000000000000000000000000000000000000000020000000000000000000000000000000000800000000000000000000000000000000",
      "type": "0x2",
      "transactionHash": "0x5752b1c1ea18b7cdc6372556c87e58a254f54c55fc596d6be6e96b450ebb38cd",
      "transactionIndex": "0x3",
      "blockHash": "0xd65d3a6f598d5a2bf4f9b3b2e026da91c5e59b877c4dac43eaea403451ca9550",
      "blockNumber": "0x176088a0",
      "gasUsed": "0xe375",
      "effectiveGasPrice": "0x989680",
      "from": "0x7310dd6ef89b7f829839f140c6840bc929ba2031",
      "to": "0x82af49447d8a07e3bd95bd0d56f35241523fbab1",
      "contractAddress": null,
      "gasUsedForL1": "0xfe",
      "l1BlockNumber": "0x1689c43",
      "timeboosted": false
    },
    {
      "status": "0x1",
      "cumulativeGasUsed": "0xd22c",
      "logs": [
        {
          "address": "0x82af49447d8a07e3bd95bd0d56f35241523fbab1",
          "topics": [
            "0x8c5be1e5ebec7d5bd14f71427d1e84f3dd0314c0f7b2291e5b200ac8c7c3b925",
            "0x0000000000000000000000007310dd6ef89b7f829839f140c6840bc929ba2031",
            "0x000000000000000000000000e592427a0aece92de3edee1f18e0157c05861564"
          ],
          "data": "0x00000000000000000000000000000000000000000000000000005af3107a4000",
          "blockHash": "0xfee229cdb82b0e010426da1a55881904516d5ea16bb8b161a98011870d65cab9",
          "blockNumber": "0x176088a7",
          "transactionHash": "0x74f1599137dc13d45cfa699b071a09f4790d41dcb38296a7fdf14c3059ba1274",
          "transactionIndex": "0x1",
          "logIndex": "0x0",
          "removed": false
        }
      ],
      "logsBloom": "0x00000002000000000000000000000000000000000000000000000000000000000000000000000000000000000008000000004000000000000000000000200000000000010000000000000100000000000000000000000000000000000000000000000000000000000000100400000000000000000000000000000000000000000000000000000000000000000000000000000000000000000000000000000000020000000000000000000000800000000000000000000000000000000000000000000000000000000000000000000000000000000000000000000000000000000010000000000000000000000000000800000000000000000000000000000000",
      "type": "0x2",
      "transactionHash": "0x74f1599137dc13d45cfa699b071a09f4790d41dcb38296a7fdf14c3059ba1274",
      "transactionIndex": "0x1",
      "blockHash": "0xfee229cdb82b0e010426da1a55881904516d5ea16bb8b161a98011870d65cab9",
      "blockNumber": "0x176088a7",
      "gasUsed": "0xd22c",
      "effectiveGasPrice": "0x989680",
      "from": "0x7310dd6ef89b7f829839f140c6840bc929ba2031",
      "to": "0x82af49447d8a07e3bd95bd0d56f35241523fbab1",
      "contractAddress": null,
      "gasUsedForL1": "0x178",
      "l1BlockNumber": "0x1689c43",
      "timeboosted": false
    },
    {
      "status": "0x1",
      "cumulativeGasUsed": "0x33f46",
      "logs": [
        {
          "address": "0xf83922bcd5a80c07ccb61dba5e7f7a02cc05a1fd",
          "topics": [
            "0xddf252ad1be2c89b69c2b068fc378daa952ba7f163c4a11628f55a4df523b3ef",
            "0x000000000000000000000000f6ff96022b5e025aea8d7d5b0484838234c17f10",
            "0x000000000000000000000000f83922bcd5a80c07ccb61dba5e7f7a02cc05a1fd"
          ],
          "data": "0x00000000000000000000000000000000000000000000000000037d1aec6fb1ae",
          "blockHash": "0x94410ccd2158d508567d2b0e92904254cdba159c7f26edb18a3585720de46bd4",
          "blockNumber": "0x176088ae",
          "transactionHash": "0x53f66befcbc8a5b124ca2a27306c082018cbfabb47ae8707a4f81f24dbdf77f0",
          "transactionIndex": "0x1",
          "logIndex": "0x0",
          "removed": false
        },
        {
          "address": "0xf83922bcd5a80c07ccb61dba5e7f7a02cc05a1fd",
          "topics": [
            "0xddf252ad1be2c89b69c2b068fc378daa952ba7f163c4a11628f55a4df523b3ef",
            "0x000000000000000000000000f6ff96022b5e025aea8d7d5b0484838234c17f10",
            "0x0000000000000000000000007310dd6ef89b7f829839f140c6840bc929ba2031"
          ],
          "data": "0x000000000000000000000000000000000000000000000000004248ff8c4a2feb",
          "blockHash": "0x94410ccd2158d508567d2b0e92904254cdba159c7f26edb18a3585720de46bd4",
          "blockNumber": "0x176088ae",
          "transactionHash": "0x53f66befcbc8a5b124ca2a27306c082018cbfabb47ae8707a4f81f24dbdf77f0",
          "transactionIndex": "0x1",
          "logIndex": "0x1",
          "removed": false
        },
        {
          "address": "0xf83922bcd5a80c07ccb61dba5e7f7a02cc05a1fd",
          "topics": [
            "0xddf252ad1be2c89b69c2b068fc378daa952ba7f163c4a11628f55a4df523b3ef",
            "0x000000000000000000000000f83922bcd5a80c07ccb61dba5e7f7a02cc05a1fd",
            "0x000000000000000000000000ddd0050d1e084dfc72d5d06447cc10bcd3fef60f"
          ],
          "data": "0x0000000000000000000000000000000000000000000000000001be8d7637d8d7",
          "blockHash": "0x94410ccd2158d508567d2b0e92904254cdba159c7f26edb18a3585720de46bd4",
          "blockNumber": "0x176088ae",
          "transactionHash": "0x53f66befcbc8a5b124ca2a27306c082018cbfabb47ae8707a4f81f24dbdf77f0",
          "transactionIndex": "0x1",
          "logIndex": "0x2",
          "removed": false
        },
        {
          "address": "0xf83922bcd5a80c07ccb61dba5e7f7a02cc05a1fd",
          "topics": [
            "0xe39112dc9ca2018b6da1038f701804f9e2cb88c4448f88c4cfc7332a2d8cc50a",
            "0x000000000000000000000000ddd0050d1e084dfc72d5d06447cc10bcd3fef60f"
          ],
          "data": "0x0000000000000000000000000000000000000000000000000001be8d7637d8d70000000000000000000000000000000000000000000000000000000000000040000000000000000000000000000000000000000000000000000000000000000c6275795f74726561737572790000000000000000000000000000000000000000",
          "blockHash": "0x94410ccd2158d508567d2b0e92904254cdba159c7f26edb18a3585720de46bd4",
          "blockNumber": "0x176088ae",
          "transactionHash": "0x53f66befcbc8a5b124ca2a27306c082018cbfabb47ae8707a4f81f24dbdf77f0",
          "transactionIndex": "0x1",
          "logIndex": "0x3",
          "removed": false
        },
        {
          "address": "0xf83922bcd5a80c07ccb61dba5e7f7a02cc05a1fd",
          "topics": [
            "0xddf252ad1be2c89b69c2b068fc378daa952ba7f163c4a11628f55a4df523b3ef",
            "0x000000000000000000000000f83922bcd5a80c07ccb61dba5e7f7a02cc05a1fd",
            "0x000000000000000000000000b05cf01231cf2ff99499682e64d3780d57c80fdd"
          ],
          "data": "0x0000000000000000000000000000000000000000000000000001be8d7637d8d7",
          "blockHash": "0x94410ccd2158d508567d2b0e92904254cdba159c7f26edb18a3585720de46bd4",
          "blockNumber": "0x176088ae",
          "transactionHash": "0x53f66befcbc8a5b124ca2a27306c082018cbfabb47ae8707a4f81f24dbdf77f0",
          "transactionIndex": "0x1",
          "logIndex": "0x4",
          "removed": false
        },
        {
          "address": "0xf83922bcd5a80c07ccb61dba5e7f7a02cc05a1fd",
          "topics": [
            "0xe39112dc9ca2018b6da1038f701804f9e2cb88c4448f88c4cfc7332a2d8cc50a",
            "0x000000000000000000000000b05cf01231cf2ff99499682e64d3780d57c80fdd"
          ],
          "data": "0x0000000000000000000000000000000000000000000000000001be8d7637d8d7000000000000000000000000000000000000000000000000000000000000004000000000000000000000000000000000000000000000000000000000000000096275795f7661756c740000000000000000000000000000000000000000000000",
          "blockHash": "0x94410ccd2158d508567d2b0e92904254cdba159c7f26edb18a3585720de46bd4",
          "blockNumber": "0x176088ae",
          "transactionHash": "0x53f66befcbc8a5b124ca2a27306c082018cbfabb47ae8707a4f81f24dbdf77f0",
          "transactionIndex": "0x1",
          "logIndex": "0x5",
          "removed": false
        },
        {
          "address": "0xf83922bcd5a80c07ccb61dba5e7f7a02cc05a1fd",
          "topics": [
            "0x5634e504c4e61a8180de1151c73ea6453696a0279247b2ced2e111d75d1a9573",
            "0x000000000000000000000000f6ff96022b5e025aea8d7d5b0484838234c17f10",
            "0x0000000000000000000000007310dd6ef89b7f829839f140c6840bc929ba2031"
          ],
          "data": "0x0000000000000000000000000000000000000000000000000045c61a78b9e19900000000000000000000000000000000000000000000000000037d1aec6fb1ae0000000000000000000000000000000000000000000000000000000000000060000000000000000000000000000000000000000000000000000000000000000f6275795f747261646974696f6e616c0000000000000000000000000000000000",
          "blockHash": "0x94410ccd2158d508567d2b0e92904254cdba159c7f26edb18a3585720de46bd4",
          "blockNumber": "0x176088ae",
          "transactionHash": "0x53f66befcbc8a5b124ca2a27306c082018cbfabb47ae8707a4f81f24dbdf77f0",
          "transactionIndex": "0x1",
          "logIndex": "0x6",
          "removed": false
        },
        {
          "address": "0x82af49447d8a07e3bd95bd0d56f35241523fbab1",
          "topics": [
            "0xddf252ad1be2c89b69c2b068fc378daa952ba7f163c4a11628f55a4df523b3ef",
            "0x0000000000000000000000007310dd6ef89b7f829839f140c6840bc929ba2031",
            "0x000000000000000000000000f6ff96022b5e025aea8d7d5b0484838234c17f10"
          ],
          "data": "0x00000000000000000000000000000000000000000000000000005af3107a4000",
          "blockHash": "0x94410ccd2158d508567d2b0e92904254cdba159c7f26edb18a3585720de46bd4",
          "blockNumber": "0x176088ae",
          "transactionHash": "0x53f66befcbc8a5b124ca2a27306c082018cbfabb47ae8707a4f81f24dbdf77f0",
          "transactionIndex": "0x1",
          "logIndex": "0x7",
          "removed": false
        },
        {
          "address": "0x82af49447d8a07e3bd95bd0d56f35241523fbab1",
          "topics": [
            "0x8c5be1e5ebec7d5bd14f71427d1e84f3dd0314c0f7b2291e5b200ac8c7c3b925",
            "0x0000000000000000000000007310dd6ef89b7f829839f140c6840bc929ba2031",
            "0x000000000000000000000000e592427a0aece92de3edee1f18e0157c05861564"
          ],
          "data": "0x0000000000000000000000000000000000000000000000000000000000000000",
          "blockHash": "0x94410ccd2158d508567d2b0e92904254cdba159c7f26edb18a3585720de46bd4",
          "blockNumber": "0x176088ae",
          "transactionHash": "0x53f66befcbc8a5b124ca2a27306c082018cbfabb47ae8707a4f81f24dbdf77f0",
          "transactionIndex": "0x1",
          "logIndex": "0x8",
          "removed": false
        },
        {
          "address": "0xf6ff96022b5e025aea8d7d5b0484838234c17f10",
          "topics": [
            "0xc42079f94a6350d7e6235f29174924f928cc2ac818eb64fed8004e115fbcca67",
            "0x000000000000000000000000e592427a0aece92de3edee1f18e0157c05861564",
            "0x0000000000000000000000007310dd6ef89b7f829839f140c6840bc929ba2031"
          ],
          "data": "0x00000000000000000000000000000000000000000000000000005af3107a4000ffffffffffffffffffffffffffffffffffffffffffffffffffba39e587461e67000000000000000000000000000000000000000e114d4389b6feefbde15b932900000000000000000000000000000000000000000000000007f141aa0b2e538b000000000000000000000000000000000000000000000000000000000000ce90",
          "blockHash": "0x94410ccd2158d508567d2b0e92904254cdba159c7f26edb18a3585720de46bd4",
          "blockNumber": "0x176088ae",
          "transactionHash": "0x53f66befcbc8a5b124ca2a27306c082018cbfabb47ae8707a4f81f24dbdf77f0",
          "transactionIndex": "0x1",
          "logIndex": "0x9",
          "removed": false
        }
      ],
      "logsBloom": "0x00000002000000000004000000100000000000000001000000000000000000000000000000000000000000000008000000004000000020020000000000200000000000010000000800000108000000000000080000000200002000100000000000000000000008000000100400000000008000000000000000000030004800000000000000000000000400000000100000000002000000000000000000000040020000000000002000000000800000000001000000000000000000000000000000000002000000000000000000000100000000000010000000000000000200000090000000000000000000000000000800000000100000000000000000000000",
      "type": "0x2",
      "transactionHash": "0x53f66befcbc8a5b124ca2a27306c082018cbfabb47ae8707a4f81f24dbdf77f0",
      "transactionIndex": "0x1",
      "blockHash": "0x94410ccd2158d508567d2b0e92904254cdba159c7f26edb18a3585720de46bd4",
      "blockNumber": "0x176088ae",
      "gasUsed": "0x33f46",
      "effectiveGasPrice": "0x989680",
      "from": "0x7310dd6ef89b7f829839f140c6840bc929ba2031",
      "to": "0xe592427a0aece92de3edee1f18e0157c05861564",
      "contractAddress": null,
      "gasUsedForL1": "0x291",
      "l1BlockNumber": "0x1689c43",
      "timeboosted": false
    }
  ],
  "libraries": [],
  "pending": [],
  "returns": {},
  "timestamp": 1761134853541,
  "chain": 42161,
  "commit": "0260dec"
}