{
  "transactions": [
    {
      "hash": "0x3617cf703886936a907f4b35eb022222dbcefdf6860cc8ccc062aea11ab89547",
      "transactionType": "CALL",
      "contractName": null,
      "contractAddress": "0x532ec3711c9e219910045e2bbfa0280ae0d8457e",
      "function": "transfer(address,uint256)",
      "arguments": [
        "0x1111111111111111111111111111111111111111",
        "1000000000000000000"
      ],
      "transaction": {
        "from": "0x7310dd6ef89b7f829839f140c6840bc929ba2031",
        "to": "0x532ec3711c9e219910045e2bbfa0280ae0d8457e",
        "gas": "0x122e6",
        "value": "0x0",
        "input": "0xa9059cbb00000000000000000000000011111111111111111111111111111111111111110000000000000000000000000000000000000000000000000de0b6b3a7640000",
        "nonce": "0x8c",
        "chainId": "0xaa36a7"
      },
      "additionalContracts": [],
      "isFixedGasLimit": false
    }
  ],
  "receipts": [
    {
      "status": "0x1",
      "cumulativeGasUsed": "0x879e68",
      "logs": [
        {
          "address": "0x532ec3711c9e219910045e2bbfa0280ae0d8457e",
          "topics": [
            "0xddf252ad1be2c89b69c2b068fc378daa952ba7f163c4a11628f55a4df523b3ef",
            "0x0000000000000000000000007310dd6ef89b7f829839f140c6840bc929ba2031",
            "0x0000000000000000000000001111111111111111111111111111111111111111"
          ],
          "data": "0x0000000000000000000000000000000000000000000000000de0b6b3a7640000",
          "blockHash": "0x8cc64f5272d68e51308f3d30a132cb8099db163b5cdfd7aac53251038902ee86",
          "blockNumber": "0x906c81",
          "blockTimestamp": "0x68f8a508",
          "transactionHash": "0x3617cf703886936a907f4b35eb022222dbcefdf6860cc8ccc062aea11ab89547",
          "transactionIndex": "0x47",
          "logIndex": "0x55",
          "removed": false
        }
      ],
      "logsBloom": "0x00000000000000000000000000000000000000000000000000000000000000000000000000000000400000000008000000000000000000000000000000000000000000000000000000000108000000000000000000000000000000000000000000000000000000000000000000000000000000000000000000000010000200000000000000040000000000000000000000000000000000000000000000000000240000000000000000000000000000000000000000000000000000000000000000000002000000000000000000000000000000000000000000000000000000080000000000000000000000000000000800000000000000000000000000000000",
      "type": "0x0",
      "transactionHash": "0x3617cf703886936a907f4b35eb022222dbcefdf6860cc8ccc062aea11ab89547",
      "transactionIndex": "0x47",
      "blockHash": "0x8cc64f5272d68e51308f3d30a132cb8099db163b5cdfd7aac53251038902ee86",
      "blockNumber": "0x906c81",
      "gasUsed": "0xd29c",
      "effectiveGasPrice": "0xf4241",
      "from": "0x7310dd6ef89b7f829839f140c6840bc929ba2031",
      "to": "0x532ec3711c9e219910045e2bbfa0280ae0d8457e",
      "contractAddress": null
    }
  ],
  "libraries": [],
  "pending": [],
  "returns": {},
  "timestamp": 1761125641463,
  "chain": 11155111,
  "commit": "0260dec"
}