{
  "transactions": [
    {
      "hash": "0x29d5cc235e3ffcd6ab67cc6955ad86d22157ace42422cfb299b8f19eb89ca7ce",
      "transactionType": "CALL",
      "contractName": null,
      "contractAddress": "0xd89d7db05d37b7c6aac73964656233bebf05392c",
      "function": "setPeer(uint32,bytes32)",
      "arguments": [
        "30110",
        "0x000000000000000000000000f130a2d24261b060b21b88464888a1ed6876986f"
      ],
      "transaction": {
        "from": "0x7310dd6ef89b7f829839f140c6840bc929ba2031",
        "to": "0xd89d7db05d37b7c6aac73964656233bebf05392c",
        "gas": "0x10205",
        "value": "0x0",
        "input": "0x3400288b000000000000000000000000000000000000000000000000000000000000759e000000000000000000000000f130a2d24261b060b21b88464888a1ed6876986f",
        "nonce": "0x30",
        "chainId": "0x2105"
      },
      "additionalContracts": [],
      "isFixedGasLimit": false
    },
    {
      "hash": "0x080d39d2dba069192e0e6ef4488649989f36dfaba2159dd813244d05483ffa82",
      "transactionType": "CALL",
      "contractName": null,
      "contractAddress": "0x1581b58f36e41724cc440fa7d997c0409a98b441",
      "function": "setPeer(uint32,bytes32)",
      "arguments": [
        "30110",
        "0x000000000000000000000000684f7a30376d201d811fed7747caa600c2849517"
      ],
      "transaction": {
        "from": "0x7310dd6ef89b7f829839f140c6840bc929ba2031",
        "to": "0x1581b58f36e41724cc440fa7d997c0409a98b441",
        "gas": "0x110a1",
        "value": "0x0",
        "input": "0x3400288b000000000000000000000000000000000000000000000000000000000000759e000000000000000000000000684f7a30376d201d811fed7747caa600c2849517",
        "nonce": "0x31",
        "chainId": "0x2105"
      },
      "additionalContracts": [],
      "isFixedGasLimit": false
    },
    {
      "hash": "0x4efcb6b66178f44ddbeafb09ffede838c9c9e5df1d7aa67f25b486e7ac42da90",
      "transactionType": "CALL",
      "contractName": null,
      "contractAddress": "0xdd3422ed60631846d852ec9632a9508533fd796a",
      "function": "setPeer(uint32,bytes32)",
      "arguments": [
        "30110",
        "0x0000000000000000000000005d2ddb479fdd7813b0383a53323135d7f9139031"
      ],
      "transaction": {
        "from": "0x7310dd6ef89b7f829839f140c6840bc929ba2031",
        "to": "0xdd3422ed60631846d852ec9632a9508533fd796a",
        "gas": "0x1018c",
        "value": "0x0",
        "input": "0x3400288b000000000000000000000000000000000000000000000000000000000000759e0000000000000000000000005d2ddb479fdd7813b0383a53323135d7f9139031",
        "nonce": "0x32",
        "chainId": "0x2105"
      },
      "additionalContracts": [],
      "isFixedGasLimit": false
    }
  ],
  "receipts": [
    {
      "status": "0x1",
      "cumulativeGasUsed": "0x86440e",
      "logs": [
        {
          "address": "0xd89d7db05d37b7c6aac73964656233bebf05392c",
          "topics": [
            "0x238399d427b947898edb290f5ff0f9109849b1c3ba196a42e35f00c50a54b98b"
          ],
          "data": "0x000000000000000000000000000000000000000000000000000000000000759e000000000000000000000000f130a2d24261b060b21b88464888a1ed6876986f",
          "blockHash": "0x23bb0887793145bc5ebed1f33f5965b417c6e76aa1fc21b74d497f5e1e99f409",
          "blockNumber": "0x2375fbc",
          "blockTimestamp": "0x68f91c5b",
          "transactionHash": "0x29d5cc235e3ffcd6ab67cc6955ad86d22157ace42422cfb299b8f19eb89ca7ce",
          "transactionIndex": "0x33",
          "logIndex": "0xd0",
          "removed": false
        }
      ],
      "logsBloom": "0x00000000000000000000000000000000000000000010000000000000000000000000000000000000000000000000000000000000000000000800000000000000000000010000000000000000000000000000000000000000000000000000000000000000000000000000000000000000000000000000000000000000000000000000000000000000000000000000000000000000000000000000000000000000000000000000000000000000000000000000000000000000000002000000000000000000000000000000000000000000100000000000000000040000000000000000000000000000000000000000000000000000000000000000000000000000",
      "type": "0x2",
      "transactionHash": "0x29d5cc235e3ffcd6ab67cc6955ad86d22157ace42422cfb299b8f19eb89ca7ce",
      "transactionIndex": "0x33",
      "blockHash": "0x23bb0887793145bc5ebed1f33f5965b417c6e76aa1fc21b74d497f5e1e99f409",
      "blockNumber": "0x2375fbc",
      "gasUsed": "0xbace",
      "effectiveGasPrice": "0x701f10",
      "from": "0x7310dd6ef89b7f829839f140c6840bc929ba2031",
      "to": "0xd89d7db05d37b7c6aac73964656233bebf05392c",
      "contractAddress": null,
      "l1BaseFeeScalar": "0x8dd",
      "l1BlobBaseFee": "0x1",
      "l1BlobBaseFeeScalar": "0x101c12",
      "l1Fee": "0x7a61c750",
      "l1GasPrice": "0xdf0a3b4",
      "l1GasUsed": "0x640"
    },
    {
      "status": "0x1",
      "cumulativeGasUsed": "0x86fe78",
      "logs": [
        {
          "address": "0x1581b58f36e41724cc440fa7d997c0409a98b441",
          "topics": [
            "0x238399d427b947898edb290f5ff0f9109849b1c3ba196a42e35f00c50a54b98b"
          ],
          "data": "0x000000000000000000000000000000000000000000000000000000000000759e000000000000000000000000684f7a30376d201d811fed7747caa600c2849517",
          "blockHash": "0x23bb0887793145bc5ebed1f33f5965b417c6e76aa1fc21b74d497f5e1e99f409",
          "blockNumber": "0x2375fbc",
          "blockTimestamp": "0x68f91c5b",
          "transactionHash": "0x080d39d2dba069192e0e6ef4488649989f36dfaba2159dd813244d05483ffa82",
          "transactionIndex": "0x34",
          "logIndex": "0xd1",
          "removed": false
        }
      ],
      "logsBloom": "0x00000000000000000000000000000000000000000000000000000000000000000000000000000000000020000000000000000000000000000800000000000000400000000000000000000000000100000000000000000000000000000000000000000000000000000000000000000000000000000000000000000000000000000000000000000000000000000000000000000000000000000000000000000000000000000000000000000000000000000000000000000000000002000000000000000000000000000000000000000000000000000000000000040000000000000000000000000000000000000000000000000000000000000000000000000000",
      "type": "0x2",
      "transactionHash": "0x080d39d2dba069192e0e6ef4488649989f36dfaba2159dd813244d05483ffa82",
      "transactionIndex": "0x34",
      "blockHash": "0x23bb0887793145bc5ebed1f33f5965b417c6e76aa1fc21b74d497f5e1e99f409",
      "blockNumber": "0x2375fbc",
      "gasUsed": "0xba6a",
      "effectiveGasPrice": "0x701f10",
      "from": "0x7310dd6ef89b7f829839f140c6840bc929ba2031",
      "to": "0x1581b58f36e41724cc440fa7d997c0409a98b441",
      "contractAddress": null,
      "l1BaseFeeScalar": "0x8dd",
      "l1BlobBaseFee": "0x1",
      "l1BlobBaseFeeScalar": "0x101c12",
      "l1Fee": "0x7a61c750",
      "l1GasPrice": "0xdf0a3b4",
      "l1GasUsed": "0x640"
    },
    {
      "status": "0x1",
      "cumulativeGasUsed": "0x87b8ee",
      "logs": [
        {
          "address": "0xdd3422ed60631846d852ec9632a9508533fd796a",
          "topics": [
            "0x238399d427b947898edb290f5ff0f9109849b1c3ba196a42e35f00c50a54b98b"
          ],
          "data": "0x000000000000000000000000000000000000000000000000000000000000759e0000000000000000000000005d2ddb479fdd7813b0383a53323135d7f9139031",
          "blockHash": "0x23bb0887793145bc5ebed1f33f5965b417c6e76aa1fc21b74d497f5e1e99f409",
          "blockNumber": "0x2375fbc",
          "blockTimestamp": "0x68f91c5b",
          "transactionHash": "0x4efcb6b66178f44ddbeafb09ffede838c9c9e5df1d7aa67f25b486e7ac42da90",
          "transactionIndex": "0x35",
          "logIndex": "0xd2",
          "removed": false
        }
      ],
      "logsBloom": "0x00000000000000000000000000000000000000000000000000000000000000000000000000000000000000000000000000000000000000000800000000000000000000000000040000000000000000000000000000000000000000000000000000000000000000000000000000000000000000000000000000000000000000000000000000000000000000000000000000000000800000000000000000000000000000000000000000000000000000000000000000000000000002000000000000000000000000000000000000000000000000000000000000440000000000000000000000000000000000000000000000000000000000000000000000000000",
      "type": "0x2",
      "transactionHash": "0x4efcb6b66178f44ddbeafb09ffede838c9c9e5df1d7aa67f25b486e7ac42da90",
      "transactionIndex": "0x35",
      "blockHash": "0x23bb0887793145bc5ebed1f33f5965b417c6e76aa1fc21b74d497f5e1e99f409",
      "blockNumber": "0x2375fbc",
      "gasUsed": "0xba76",
      "effectiveGasPrice": "0x701f10",
      "from": "0x7310dd6ef89b7f829839f140c6840bc929ba2031",
      "to": "0xdd3422ed60631846d852ec9632a9508533fd796a",
      "contractAddress": null,
      "l1BaseFeeScalar": "0x8dd",
      "l1BlobBaseFee": "0x1",
      "l1BlobBaseFeeScalar": "0x101c12",
      "l1Fee": "0x7a61c750",
      "l1GasPrice": "0xdf0a3b4",
      "l1GasUsed": "0x640"
    }
  ],
  "libraries": [],
  "pending": [],
  "returns": {},
  "timestamp": 1761156187444,
  "chain": 8453,
  "commit": "0260dec"
}